{
  "_format": "hh-sol-artifact-1",
  "contractName": "Streetsof",
  "sourceName": "contracts/Streetsof.sol",
  "abi": [
    {
      "inputs": [],
      "stateMutability": "nonpayable",
      "type": "constructor"
    },
    {
      "anonymous": false,
      "inputs": [
        {
          "indexed": true,
          "internalType": "address",
          "name": "owner",
          "type": "address"
        },
        {
          "indexed": true,
          "internalType": "address",
          "name": "approved",
          "type": "address"
        },
        {
          "indexed": true,
          "internalType": "uint256",
          "name": "tokenId",
          "type": "uint256"
        }
      ],
      "name": "Approval",
      "type": "event"
    },
    {
      "anonymous": false,
      "inputs": [
        {
          "indexed": true,
          "internalType": "address",
          "name": "owner",
          "type": "address"
        },
        {
          "indexed": true,
          "internalType": "address",
          "name": "operator",
          "type": "address"
        },
        {
          "indexed": false,
          "internalType": "bool",
          "name": "approved",
          "type": "bool"
        }
      ],
      "name": "ApprovalForAll",
      "type": "event"
    },
    {
      "anonymous": false,
      "inputs": [
        {
          "indexed": true,
          "internalType": "address",
          "name": "previousOwner",
          "type": "address"
        },
        {
          "indexed": true,
          "internalType": "address",
          "name": "newOwner",
          "type": "address"
        }
      ],
      "name": "OwnershipTransferred",
      "type": "event"
    },
    {
      "anonymous": false,
      "inputs": [
        {
          "indexed": false,
          "internalType": "bool",
          "name": "active",
          "type": "bool"
        }
      ],
      "name": "SaleStateUpdate",
      "type": "event"
    },
    {
      "anonymous": false,
      "inputs": [
        {
          "indexed": true,
          "internalType": "address",
          "name": "from",
          "type": "address"
        },
        {
          "indexed": true,
          "internalType": "address",
          "name": "to",
          "type": "address"
        },
        {
          "indexed": true,
          "internalType": "uint256",
          "name": "tokenId",
          "type": "uint256"
        }
      ],
      "name": "Transfer",
      "type": "event"
    },
    {
      "inputs": [],
      "name": "MAX_SUPPLY",
      "outputs": [
        {
          "internalType": "uint256",
          "name": "",
          "type": "uint256"
        }
      ],
      "stateMutability": "view",
      "type": "function"
    },
    {
      "inputs": [],
      "name": "PREMINT_AMOUNT",
      "outputs": [
        {
          "internalType": "uint256",
          "name": "",
          "type": "uint256"
        }
      ],
      "stateMutability": "view",
      "type": "function"
    },
    {
      "inputs": [],
      "name": "RESERVED_AMOUNT",
      "outputs": [
        {
          "internalType": "uint256",
          "name": "",
          "type": "uint256"
        }
      ],
      "stateMutability": "view",
      "type": "function"
    },
    {
      "inputs": [
        {
          "internalType": "address",
          "name": "",
          "type": "address"
        }
      ],
      "name": "_publicMinted",
      "outputs": [
        {
          "internalType": "uint256",
          "name": "",
          "type": "uint256"
        }
      ],
      "stateMutability": "view",
      "type": "function"
    },
    {
      "inputs": [
        {
          "internalType": "address",
          "name": "to",
          "type": "address"
        },
        {
          "internalType": "uint256",
          "name": "tokenId",
          "type": "uint256"
        }
      ],
      "name": "approve",
      "outputs": [],
      "stateMutability": "nonpayable",
      "type": "function"
    },
    {
      "inputs": [
        {
          "internalType": "address",
          "name": "owner",
          "type": "address"
        }
      ],
      "name": "balanceOf",
      "outputs": [
        {
          "internalType": "uint256",
          "name": "",
          "type": "uint256"
        }
      ],
      "stateMutability": "view",
      "type": "function"
    },
    {
      "inputs": [],
      "name": "baseURI",
      "outputs": [
        {
          "internalType": "string",
          "name": "",
          "type": "string"
        }
      ],
      "stateMutability": "view",
      "type": "function"
    },
    {
      "inputs": [
        {
          "internalType": "uint256",
          "name": "tokenId",
          "type": "uint256"
        }
      ],
      "name": "getApproved",
      "outputs": [
        {
          "internalType": "address",
          "name": "",
          "type": "address"
        }
      ],
      "stateMutability": "view",
      "type": "function"
    },
    {
      "inputs": [
        {
          "internalType": "address",
          "name": "owner",
          "type": "address"
        },
        {
          "internalType": "address",
          "name": "operator",
          "type": "address"
        }
      ],
      "name": "isApprovedForAll",
      "outputs": [
        {
          "internalType": "bool",
          "name": "",
          "type": "bool"
        }
      ],
      "stateMutability": "view",
      "type": "function"
    },
    {
      "inputs": [
        {
          "internalType": "uint256",
          "name": "amount",
          "type": "uint256"
        }
      ],
      "name": "mint",
      "outputs": [],
      "stateMutability": "payable",
      "type": "function"
    },
    {
      "inputs": [],
      "name": "name",
      "outputs": [
        {
          "internalType": "string",
          "name": "",
          "type": "string"
        }
      ],
      "stateMutability": "view",
      "type": "function"
    },
    {
      "inputs": [
        {
          "internalType": "uint256",
          "name": "amount",
          "type": "uint256"
        }
      ],
      "name": "ownMint",
      "outputs": [],
      "stateMutability": "nonpayable",
      "type": "function"
    },
    {
      "inputs": [],
      "name": "owner",
      "outputs": [
        {
          "internalType": "address",
          "name": "",
          "type": "address"
        }
      ],
      "stateMutability": "view",
      "type": "function"
    },
    {
      "inputs": [
        {
          "internalType": "uint256",
          "name": "tokenId",
          "type": "uint256"
        }
      ],
      "name": "ownerOf",
      "outputs": [
        {
          "internalType": "address",
          "name": "",
          "type": "address"
        }
      ],
      "stateMutability": "view",
      "type": "function"
    },
    {
      "inputs": [],
      "name": "price",
      "outputs": [
        {
          "internalType": "uint256",
          "name": "",
          "type": "uint256"
        }
      ],
      "stateMutability": "view",
      "type": "function"
    },
    {
      "inputs": [],
      "name": "publicSaleActive",
      "outputs": [
        {
          "internalType": "bool",
          "name": "",
          "type": "bool"
        }
      ],
      "stateMutability": "view",
      "type": "function"
    },
    {
      "inputs": [],
      "name": "purchaseLimit",
      "outputs": [
        {
          "internalType": "uint256",
          "name": "",
          "type": "uint256"
        }
      ],
      "stateMutability": "view",
      "type": "function"
    },
    {
      "inputs": [
        {
          "internalType": "contract IERC20",
          "name": "token",
          "type": "address"
        }
      ],
      "name": "recoverToken",
      "outputs": [],
      "stateMutability": "nonpayable",
      "type": "function"
    },
    {
      "inputs": [
        {
          "internalType": "uint256",
          "name": "newMaxSupply",
          "type": "uint256"
        }
      ],
      "name": "reduceSupply",
      "outputs": [],
      "stateMutability": "nonpayable",
      "type": "function"
    },
    {
      "inputs": [],
      "name": "renounceOwnership",
      "outputs": [],
      "stateMutability": "nonpayable",
      "type": "function"
    },
    {
      "inputs": [
        {
          "internalType": "bool",
          "name": "value",
          "type": "bool"
        }
      ],
      "name": "reveal",
      "outputs": [],
      "stateMutability": "nonpayable",
      "type": "function"
    },
    {
      "inputs": [],
      "name": "revealed",
      "outputs": [
        {
          "internalType": "bool",
          "name": "",
          "type": "bool"
        }
      ],
      "stateMutability": "view",
      "type": "function"
    },
    {
      "inputs": [
        {
          "internalType": "address",
          "name": "from",
          "type": "address"
        },
        {
          "internalType": "address",
          "name": "to",
          "type": "address"
        },
        {
          "internalType": "uint256",
          "name": "tokenId",
          "type": "uint256"
        }
      ],
      "name": "safeTransferFrom",
      "outputs": [],
      "stateMutability": "nonpayable",
      "type": "function"
    },
    {
      "inputs": [
        {
          "internalType": "address",
          "name": "from",
          "type": "address"
        },
        {
          "internalType": "address",
          "name": "to",
          "type": "address"
        },
        {
          "internalType": "uint256",
          "name": "tokenId",
          "type": "uint256"
        },
        {
          "internalType": "bytes",
          "name": "_data",
          "type": "bytes"
        }
      ],
      "name": "safeTransferFrom",
      "outputs": [],
      "stateMutability": "nonpayable",
      "type": "function"
    },
    {
      "inputs": [
        {
          "internalType": "address",
          "name": "operator",
          "type": "address"
        },
        {
          "internalType": "bool",
          "name": "approved",
          "type": "bool"
        }
      ],
      "name": "setApprovalForAll",
      "outputs": [],
      "stateMutability": "nonpayable",
      "type": "function"
    },
    {
      "inputs": [
        {
          "internalType": "string",
          "name": "_baseURI",
          "type": "string"
        }
      ],
      "name": "setBaseURI",
      "outputs": [],
      "stateMutability": "nonpayable",
      "type": "function"
    },
    {
      "inputs": [
        {
          "internalType": "uint256",
          "name": "price_",
          "type": "uint256"
        }
      ],
      "name": "setPrice",
      "outputs": [],
      "stateMutability": "nonpayable",
      "type": "function"
    },
    {
      "inputs": [
        {
          "internalType": "bool",
          "name": "active",
          "type": "bool"
        }
      ],
      "name": "setPublicSaleActive",
      "outputs": [],
      "stateMutability": "nonpayable",
      "type": "function"
    },
    {
      "inputs": [
        {
          "internalType": "uint256",
          "name": "limit",
          "type": "uint256"
        }
      ],
      "name": "setPurchaseLimit",
      "outputs": [],
      "stateMutability": "nonpayable",
      "type": "function"
    },
    {
      "inputs": [
        {
          "internalType": "uint256",
          "name": "value",
          "type": "uint256"
        }
      ],
      "name": "setReserve",
      "outputs": [],
      "stateMutability": "nonpayable",
      "type": "function"
    },
    {
      "inputs": [
        {
          "internalType": "address",
          "name": "address_",
          "type": "address"
        }
      ],
      "name": "setSignerAddress",
      "outputs": [],
      "stateMutability": "nonpayable",
      "type": "function"
    },
    {
      "inputs": [
        {
          "internalType": "string",
          "name": "_uri",
          "type": "string"
        }
      ],
      "name": "setUnrevealedURI",
      "outputs": [],
      "stateMutability": "nonpayable",
      "type": "function"
    },
    {
      "inputs": [
        {
          "internalType": "bytes4",
          "name": "interfaceId",
          "type": "bytes4"
        }
      ],
      "name": "supportsInterface",
      "outputs": [
        {
          "internalType": "bool",
          "name": "",
          "type": "bool"
        }
      ],
      "stateMutability": "view",
      "type": "function"
    },
    {
      "inputs": [],
      "name": "symbol",
      "outputs": [
        {
          "internalType": "string",
          "name": "",
          "type": "string"
        }
      ],
      "stateMutability": "view",
      "type": "function"
    },
    {
      "inputs": [
        {
          "internalType": "uint256",
          "name": "index",
          "type": "uint256"
        }
      ],
      "name": "tokenByIndex",
      "outputs": [
        {
          "internalType": "uint256",
          "name": "",
          "type": "uint256"
        }
      ],
      "stateMutability": "view",
      "type": "function"
    },
    {
      "inputs": [
        {
          "internalType": "address",
          "name": "owner",
          "type": "address"
        }
      ],
      "name": "tokenIdsOf",
      "outputs": [
        {
          "internalType": "uint256[]",
          "name": "",
          "type": "uint256[]"
        }
      ],
      "stateMutability": "view",
      "type": "function"
    },
    {
      "inputs": [
        {
          "internalType": "address",
          "name": "owner",
          "type": "address"
        },
        {
          "internalType": "uint256",
          "name": "index",
          "type": "uint256"
        }
      ],
      "name": "tokenOfOwnerByIndex",
      "outputs": [
        {
          "internalType": "uint256",
          "name": "",
          "type": "uint256"
        }
      ],
      "stateMutability": "view",
      "type": "function"
    },
    {
      "inputs": [
        {
          "internalType": "uint256",
          "name": "tokenId",
          "type": "uint256"
        }
      ],
      "name": "tokenURI",
      "outputs": [
        {
          "internalType": "string",
          "name": "",
          "type": "string"
        }
      ],
      "stateMutability": "view",
      "type": "function"
    },
    {
      "inputs": [],
      "name": "totalSupply",
      "outputs": [
        {
          "internalType": "uint256",
          "name": "",
          "type": "uint256"
        }
      ],
      "stateMutability": "view",
      "type": "function"
    },
    {
      "inputs": [
        {
          "internalType": "address",
          "name": "from",
          "type": "address"
        },
        {
          "internalType": "address",
          "name": "to",
          "type": "address"
        },
        {
          "internalType": "uint256",
          "name": "tokenId",
          "type": "uint256"
        }
      ],
      "name": "transferFrom",
      "outputs": [],
      "stateMutability": "nonpayable",
      "type": "function"
    },
    {
      "inputs": [
        {
          "internalType": "address",
          "name": "newOwner",
          "type": "address"
        }
      ],
      "name": "transferOwnership",
      "outputs": [],
      "stateMutability": "nonpayable",
      "type": "function"
    },
    {
      "inputs": [],
      "name": "unrevealedURI",
      "outputs": [
        {
          "internalType": "string",
          "name": "",
          "type": "string"
        }
      ],
      "stateMutability": "view",
      "type": "function"
    },
    {
      "inputs": [],
      "name": "withdraw",
      "outputs": [],
      "stateMutability": "payable",
      "type": "function"
    }
  ],
  "bytecode": "0x60806040526040518060400160405280600b81526020017f697066733a2f2f6e6f6e65000000000000000000000000000000000000000000815250600c90805190602001906200005192919062000b4d565b5060405180608001604052806044815260200162005e0060449139600d90805190602001906200008392919062000b4d565b50600360105560006011556000601255600160135573fe07d608bd5185b4fc0c72a64b1310a674b873bb601560006101000a81548173ffffffffffffffffffffffffffffffffffffffff021916908373ffffffffffffffffffffffffffffffffffffffff1602179055506000601560146101000a81548160ff0219169083151502179055503480156200011557600080fd5b506040518060400160405280600981526020017f537472656574736f6600000000000000000000000000000000000000000000008152506040518060400160405280600981526020017f535452454554534f46000000000000000000000000000000000000000000000081525081600090805190602001906200019a92919062000b4d565b508060019080519060200190620001b392919062000b4d565b505050620001d6620001ca620001ef60201b60201c565b620001f760201b60201c565b620001e9336001620002bd60201b60201c565b62001050565b600033905090565b6000600b60009054906101000a900473ffffffffffffffffffffffffffffffffffffffff16905081600b60006101000a81548173ffffffffffffffffffffffffffffffffffffffff021916908373ffffffffffffffffffffffffffffffffffffffff1602179055508173ffffffffffffffffffffffffffffffffffffffff168173ffffffffffffffffffffffffffffffffffffffff167f8be0079c531659141344cd1fd0a4f28419497f9722a3daafe3b4186f6b6457e060405160405180910390a35050565b6000600f549050601154601054620002d6919062000c36565b8282620002e4919062000c71565b111562000328576040517f08c379a00000000000000000000000000000000000000000000000000000000081526004016200031f9062000d2f565b60405180910390fd5b600082116200036e576040517f08c379a0000000000000000000000000000000000000000000000000000000008152600401620003659062000da1565b60405180910390fd5b6000600190505b828111620003b2576200039c84828462000390919062000c71565b620003d360201b60201c565b8080620003a99062000dc3565b91505062000375565b5081600f6000828254620003c7919062000c71565b92505081905550505050565b600073ffffffffffffffffffffffffffffffffffffffff168273ffffffffffffffffffffffffffffffffffffffff16141562000446576040517f08c379a00000000000000000000000000000000000000000000000000000000081526004016200043d9062000e61565b60405180910390fd5b6200045781620005d360201b60201c565b156200049a576040517f08c379a0000000000000000000000000000000000000000000000000000000008152600401620004919062000ed3565b60405180910390fd5b620004ae600083836200063f60201b60201c565b6001600460008473ffffffffffffffffffffffffffffffffffffffff1673ffffffffffffffffffffffffffffffffffffffff168152602001908152602001600020600082825462000500919062000c71565b92505081905550816003600083815260200190815260200160002060006101000a81548173ffffffffffffffffffffffffffffffffffffffff021916908373ffffffffffffffffffffffffffffffffffffffff160217905550600260008154809291906200056e9062000dc3565b9190505550808273ffffffffffffffffffffffffffffffffffffffff16600073ffffffffffffffffffffffffffffffffffffffff167fddf252ad1be2c89b69c2b068fc378daa952ba7f163c4a11628f55a4df523b3ef60405160405180910390a45050565b60008073ffffffffffffffffffffffffffffffffffffffff166003600084815260200190815260200160002060009054906101000a900473ffffffffffffffffffffffffffffffffffffffff1673ffffffffffffffffffffffffffffffffffffffff1614159050919050565b600073ffffffffffffffffffffffffffffffffffffffff168373ffffffffffffffffffffffffffffffffffffffff1614156200068c5762000686816200076e60201b60201c565b620006d4565b8173ffffffffffffffffffffffffffffffffffffffff168373ffffffffffffffffffffffffffffffffffffffff1614620006d357620006d28382620007b760201b60201c565b5b5b600073ffffffffffffffffffffffffffffffffffffffff168273ffffffffffffffffffffffffffffffffffffffff16141562000721576200071b816200092f60201b60201c565b62000769565b8273ffffffffffffffffffffffffffffffffffffffff168273ffffffffffffffffffffffffffffffffffffffff1614620007685762000767828262000a0b60201b60201c565b5b5b505050565b600980549050600a600083815260200190815260200160002081905550600981908060018154018082558091505060019003906000526020600020016000909190919091505550565b60006001620007cc8462000a9260201b60201c565b620007d8919062000c36565b9050600060086000848152602001908152602001600020549050818114620008be576000600760008673ffffffffffffffffffffffffffffffffffffffff1673ffffffffffffffffffffffffffffffffffffffff168152602001908152602001600020600084815260200190815260200160002054905080600760008773ffffffffffffffffffffffffffffffffffffffff1673ffffffffffffffffffffffffffffffffffffffff168152602001908152602001600020600084815260200190815260200160002081905550816008600083815260200190815260200160002081905550505b6008600084815260200190815260200160002060009055600760008573ffffffffffffffffffffffffffffffffffffffff1673ffffffffffffffffffffffffffffffffffffffff16815260200190815260200160002060008381526020019081526020016000206000905550505050565b6000600160098054905062000945919062000c36565b90506000600a600084815260200190815260200160002054905060006009838154811062000978576200097762000ef5565b5b9060005260206000200154905080600983815481106200099d576200099c62000ef5565b5b906000526020600020018190555081600a600083815260200190815260200160002081905550600a6000858152602001908152602001600020600090556009805480620009ef57620009ee62000f24565b5b6001900381819060005260206000200160009055905550505050565b600062000a1e8362000a9260201b60201c565b905081600760008573ffffffffffffffffffffffffffffffffffffffff1673ffffffffffffffffffffffffffffffffffffffff168152602001908152602001600020600083815260200190815260200160002081905550806008600084815260200190815260200160002081905550505050565b60008073ffffffffffffffffffffffffffffffffffffffff168273ffffffffffffffffffffffffffffffffffffffff16141562000b06576040517f08c379a000000000000000000000000000000000000000000000000000000000815260040162000afd9062000fc9565b60405180910390fd5b600460008373ffffffffffffffffffffffffffffffffffffffff1673ffffffffffffffffffffffffffffffffffffffff168152602001908152602001600020549050919050565b82805462000b5b906200101a565b90600052602060002090601f01602090048101928262000b7f576000855562000bcb565b82601f1062000b9a57805160ff191683800117855562000bcb565b8280016001018555821562000bcb579182015b8281111562000bca57825182559160200191906001019062000bad565b5b50905062000bda919062000bde565b5090565b5b8082111562000bf957600081600090555060010162000bdf565b5090565b6000819050919050565b7f4e487b7100000000000000000000000000000000000000000000000000000000600052601160045260246000fd5b600062000c438262000bfd565b915062000c508362000bfd565b92508282101562000c665762000c6562000c07565b5b828203905092915050565b600062000c7e8262000bfd565b915062000c8b8362000bfd565b9250827fffffffffffffffffffffffffffffffffffffffffffffffffffffffffffffffff0382111562000cc35762000cc262000c07565b5b828201905092915050565b600082825260208201905092915050565b7f4d41585f535550504c595f524541434845440000000000000000000000000000600082015250565b600062000d1760128362000cce565b915062000d248262000cdf565b602082019050919050565b6000602082019050818103600083015262000d4a8162000d08565b9050919050565b7f4d5553545f42455f475245415445525f30000000000000000000000000000000600082015250565b600062000d8960118362000cce565b915062000d968262000d51565b602082019050919050565b6000602082019050818103600083015262000dbc8162000d7a565b9050919050565b600062000dd08262000bfd565b91507fffffffffffffffffffffffffffffffffffffffffffffffffffffffffffffffff82141562000e065762000e0562000c07565b5b600182019050919050565b7f4552433732313a206d696e7420746f20746865207a65726f2061646472657373600082015250565b600062000e4960208362000cce565b915062000e568262000e11565b602082019050919050565b6000602082019050818103600083015262000e7c8162000e3a565b9050919050565b7f4552433732313a20746f6b656e20616c7265616479206d696e74656400000000600082015250565b600062000ebb601c8362000cce565b915062000ec88262000e83565b602082019050919050565b6000602082019050818103600083015262000eee8162000eac565b9050919050565b7f4e487b7100000000000000000000000000000000000000000000000000000000600052603260045260246000fd5b7f4e487b7100000000000000000000000000000000000000000000000000000000600052603160045260246000fd5b7f4552433732313a2062616c616e636520717565727920666f7220746865207a6560008201527f726f206164647265737300000000000000000000000000000000000000000000602082015250565b600062000fb1602a8362000cce565b915062000fbe8262000f53565b604082019050919050565b6000602082019050818103600083015262000fe48162000fa2565b9050919050565b7f4e487b7100000000000000000000000000000000000000000000000000000000600052602260045260246000fd5b600060028204905060018216806200103357607f821691505b602082108114156200104a576200104962000feb565b5b50919050565b614da080620010606000396000f3fe60806040526004361061025c5760003560e01c80637035bf1811610144578063a22cb465116100b6578063d85f27401161007a578063d85f2740146108da578063e15c173014610905578063e2e06fa314610930578063e985e9c514610959578063f2fde38b14610996578063fe2c7fee146109bf5761025c565b8063a22cb465146107e3578063a3b261f21461080c578063b88d4fde14610849578063bc8893b414610872578063c87b56dd1461089d5761025c565b806391b7f5ed1161010857806391b7f5ed146106f6578063940cd05b1461071f57806395d89b41146107485780639be65a6014610773578063a035b1fe1461079c578063a0712d68146107c75761025c565b80637035bf181461062357806370a082311461064e578063715018a61461068b57806380623444146106a25780638da5cb5b146106cb5761025c565b806332cb6b0c116101dd57806351830227116101a1578063518302271461050157806355f804b31461052c578063581ea136146105555780636352211e146105925780636c0360eb146105cf5780636edc4388146105fa5761025c565b806332cb6b0c1461043d5780633ccfd60b146104685780634256dbe31461047257806342842e0e1461049b5780634f6ccce7146104c45761025c565b806318160ddd1161022457806318160ddd1461035857806318886657146103835780632062121d146103ae57806323b872dd146103d75780632f745c59146104005761025c565b806301ffc9a714610261578063046dc1661461029e57806306fdde03146102c7578063081812fc146102f2578063095ea7b31461032f575b600080fd5b34801561026d57600080fd5b50610288600480360381019061028391906133b0565b6109e8565b60405161029591906133f8565b60405180910390f35b3480156102aa57600080fd5b506102c560048036038101906102c09190613471565b610aca565b005b3480156102d357600080fd5b506102dc610b8a565b6040516102e99190613537565b60405180910390f35b3480156102fe57600080fd5b506103196004803603810190610314919061358f565b610c1c565b60405161032691906135cb565b60405180910390f35b34801561033b57600080fd5b50610356600480360381019061035191906135e6565b610ca1565b005b34801561036457600080fd5b5061036d610db9565b60405161037a9190613635565b60405180910390f35b34801561038f57600080fd5b50610398610dbf565b6040516103a59190613635565b60405180910390f35b3480156103ba57600080fd5b506103d560048036038101906103d0919061358f565b610dc5565b005b3480156103e357600080fd5b506103fe60048036038101906103f99190613650565b610e4e565b005b34801561040c57600080fd5b50610427600480360381019061042291906135e6565b610eae565b6040516104349190613635565b60405180910390f35b34801561044957600080fd5b50610452610f53565b60405161045f9190613635565b60405180910390f35b610470610f59565b005b34801561047e57600080fd5b506104996004803603810190610494919061358f565b611055565b005b3480156104a757600080fd5b506104c260048036038101906104bd9190613650565b6110db565b005b3480156104d057600080fd5b506104eb60048036038101906104e6919061358f565b6110fb565b6040516104f89190613635565b60405180910390f35b34801561050d57600080fd5b50610516611167565b60405161052391906133f8565b60405180910390f35b34801561053857600080fd5b50610553600480360381019061054e91906137d8565b61117a565b005b34801561056157600080fd5b5061057c60048036038101906105779190613471565b611210565b6040516105899190613635565b60405180910390f35b34801561059e57600080fd5b506105b960048036038101906105b4919061358f565b611228565b6040516105c691906135cb565b60405180910390f35b3480156105db57600080fd5b506105e46112da565b6040516105f19190613537565b60405180910390f35b34801561060657600080fd5b50610621600480360381019061061c919061358f565b611368565b005b34801561062f57600080fd5b506106386113ee565b6040516106459190613537565b60405180910390f35b34801561065a57600080fd5b5061067560048036038101906106709190613471565b61147c565b6040516106829190613635565b60405180910390f35b34801561069757600080fd5b506106a0611534565b005b3480156106ae57600080fd5b506106c960048036038101906106c4919061358f565b6115bc565b005b3480156106d757600080fd5b506106e0611642565b6040516106ed91906135cb565b60405180910390f35b34801561070257600080fd5b5061071d6004803603810190610718919061358f565b61166c565b005b34801561072b57600080fd5b506107466004803603810190610741919061384d565b6116f2565b005b34801561075457600080fd5b5061075d61178b565b60405161076a9190613537565b60405180910390f35b34801561077f57600080fd5b5061079a600480360381019061079591906138b8565b61181d565b005b3480156107a857600080fd5b506107b16119a1565b6040516107be9190613635565b60405180910390f35b6107e160048036038101906107dc919061358f565b6119a7565b005b3480156107ef57600080fd5b5061080a600480360381019061080591906138e5565b611bdd565b005b34801561081857600080fd5b50610833600480360381019061082e9190613471565b611bf3565b60405161084091906139e3565b60405180910390f35b34801561085557600080fd5b50610870600480360381019061086b9190613aa6565b611caf565b005b34801561087e57600080fd5b50610887611d11565b60405161089491906133f8565b60405180910390f35b3480156108a957600080fd5b506108c460048036038101906108bf919061358f565b611d24565b6040516108d19190613537565b60405180910390f35b3480156108e657600080fd5b506108ef611e47565b6040516108fc9190613635565b60405180910390f35b34801561091157600080fd5b5061091a611e4d565b6040516109279190613635565b60405180910390f35b34801561093c57600080fd5b506109576004803603810190610952919061384d565b611e52565b005b34801561096557600080fd5b50610980600480360381019061097b9190613b29565b611f22565b60405161098d91906133f8565b60405180910390f35b3480156109a257600080fd5b506109bd60048036038101906109b89190613471565b611fb6565b005b3480156109cb57600080fd5b506109e660048036038101906109e191906137d8565b6120ae565b005b60007f80ac58cd000000000000000000000000000000000000000000000000000000007bffffffffffffffffffffffffffffffffffffffffffffffffffffffff1916827bffffffffffffffffffffffffffffffffffffffffffffffffffffffff19161480610ab357507f5b5e139f000000000000000000000000000000000000000000000000000000007bffffffffffffffffffffffffffffffffffffffffffffffffffffffff1916827bffffffffffffffffffffffffffffffffffffffffffffffffffffffff1916145b80610ac35750610ac282612144565b5b9050919050565b610ad26121ae565b73ffffffffffffffffffffffffffffffffffffffff16610af0611642565b73ffffffffffffffffffffffffffffffffffffffff1614610b46576040517f08c379a0000000000000000000000000000000000000000000000000000000008152600401610b3d90613bb5565b60405180910390fd5b80601560006101000a81548173ffffffffffffffffffffffffffffffffffffffff021916908373ffffffffffffffffffffffffffffffffffffffff16021790555050565b606060008054610b9990613c04565b80601f0160208091040260200160405190810160405280929190818152602001828054610bc590613c04565b8015610c125780601f10610be757610100808354040283529160200191610c12565b820191906000526020600020905b815481529060010190602001808311610bf557829003601f168201915b5050505050905090565b6000610c27826121b6565b610c66576040517f08c379a0000000000000000000000000000000000000000000000000000000008152600401610c5d90613ca8565b60405180910390fd5b6005600083815260200190815260200160002060009054906101000a900473ffffffffffffffffffffffffffffffffffffffff169050919050565b6000610cac82611228565b90508073ffffffffffffffffffffffffffffffffffffffff168373ffffffffffffffffffffffffffffffffffffffff161415610d1d576040517f08c379a0000000000000000000000000000000000000000000000000000000008152600401610d1490613d3a565b60405180910390fd5b8073ffffffffffffffffffffffffffffffffffffffff16610d3c6121ae565b73ffffffffffffffffffffffffffffffffffffffff161480610d6b5750610d6a81610d656121ae565b611f22565b5b610daa576040517f08c379a0000000000000000000000000000000000000000000000000000000008152600401610da190613dcc565b60405180910390fd5b610db48383612222565b505050565b600f5481565b60135481565b610dcd6121ae565b73ffffffffffffffffffffffffffffffffffffffff16610deb611642565b73ffffffffffffffffffffffffffffffffffffffff1614610e41576040517f08c379a0000000000000000000000000000000000000000000000000000000008152600401610e3890613bb5565b60405180910390fd5b610e4b33826122db565b50565b610e5f610e596121ae565b826123d7565b610e9e576040517f08c379a0000000000000000000000000000000000000000000000000000000008152600401610e9590613e5e565b60405180910390fd5b610ea98383836124b5565b505050565b6000610eb98361147c565b8210610efa576040517f08c379a0000000000000000000000000000000000000000000000000000000008152600401610ef190613ef0565b60405180910390fd5b600760008473ffffffffffffffffffffffffffffffffffffffff1673ffffffffffffffffffffffffffffffffffffffff168152602001908152602001600020600083815260200190815260200160002054905092915050565b60105481565b610f616121ae565b73ffffffffffffffffffffffffffffffffffffffff16610f7f611642565b73ffffffffffffffffffffffffffffffffffffffff1614610fd5576040517f08c379a0000000000000000000000000000000000000000000000000000000008152600401610fcc90613bb5565b60405180910390fd5b6000610fdf611642565b73ffffffffffffffffffffffffffffffffffffffff164760405161100290613f41565b60006040518083038185875af1925050503d806000811461103f576040519150601f19603f3d011682016040523d82523d6000602084013e611044565b606091505b505090508061105257600080fd5b50565b61105d6121ae565b73ffffffffffffffffffffffffffffffffffffffff1661107b611642565b73ffffffffffffffffffffffffffffffffffffffff16146110d1576040517f08c379a00000000000000000000000000000000000000000000000000000000081526004016110c890613bb5565b60405180910390fd5b8060118190555050565b6110f683838360405180602001604052806000815250611caf565b505050565b60006002548210611141576040517f08c379a000000000000000000000000000000000000000000000000000000000815260040161113890613fc8565b60405180910390fd5b6009828154811061115557611154613fe8565b5b90600052602060002001549050919050565b601560149054906101000a900460ff1681565b6111826121ae565b73ffffffffffffffffffffffffffffffffffffffff166111a0611642565b73ffffffffffffffffffffffffffffffffffffffff16146111f6576040517f08c379a00000000000000000000000000000000000000000000000000000000081526004016111ed90613bb5565b60405180910390fd5b80600c908051906020019061120c9291906132a1565b5050565b60146020528060005260406000206000915090505481565b6000806003600084815260200190815260200160002060009054906101000a900473ffffffffffffffffffffffffffffffffffffffff169050600073ffffffffffffffffffffffffffffffffffffffff168173ffffffffffffffffffffffffffffffffffffffff1614156112d1576040517f08c379a00000000000000000000000000000000000000000000000000000000081526004016112c890614089565b60405180910390fd5b80915050919050565b600c80546112e790613c04565b80601f016020809104026020016040519081016040528092919081815260200182805461131390613c04565b80156113605780601f1061133557610100808354040283529160200191611360565b820191906000526020600020905b81548152906001019060200180831161134357829003601f168201915b505050505081565b6113706121ae565b73ffffffffffffffffffffffffffffffffffffffff1661138e611642565b73ffffffffffffffffffffffffffffffffffffffff16146113e4576040517f08c379a00000000000000000000000000000000000000000000000000000000081526004016113db90613bb5565b60405180910390fd5b8060138190555050565b600d80546113fb90613c04565b80601f016020809104026020016040519081016040528092919081815260200182805461142790613c04565b80156114745780601f1061144957610100808354040283529160200191611474565b820191906000526020600020905b81548152906001019060200180831161145757829003601f168201915b505050505081565b60008073ffffffffffffffffffffffffffffffffffffffff168273ffffffffffffffffffffffffffffffffffffffff1614156114ed576040517f08c379a00000000000000000000000000000000000000000000000000000000081526004016114e49061411b565b60405180910390fd5b600460008373ffffffffffffffffffffffffffffffffffffffff1673ffffffffffffffffffffffffffffffffffffffff168152602001908152602001600020549050919050565b61153c6121ae565b73ffffffffffffffffffffffffffffffffffffffff1661155a611642565b73ffffffffffffffffffffffffffffffffffffffff16146115b0576040517f08c379a00000000000000000000000000000000000000000000000000000000081526004016115a790613bb5565b60405180910390fd5b6115ba6000612711565b565b6115c46121ae565b73ffffffffffffffffffffffffffffffffffffffff166115e2611642565b73ffffffffffffffffffffffffffffffffffffffff1614611638576040517f08c379a000000000000000000000000000000000000000000000000000000000815260040161162f90613bb5565b60405180910390fd5b8060108190555050565b6000600b60009054906101000a900473ffffffffffffffffffffffffffffffffffffffff16905090565b6116746121ae565b73ffffffffffffffffffffffffffffffffffffffff16611692611642565b73ffffffffffffffffffffffffffffffffffffffff16146116e8576040517f08c379a00000000000000000000000000000000000000000000000000000000081526004016116df90613bb5565b60405180910390fd5b8060128190555050565b6116fa6121ae565b73ffffffffffffffffffffffffffffffffffffffff16611718611642565b73ffffffffffffffffffffffffffffffffffffffff161461176e576040517f08c379a000000000000000000000000000000000000000000000000000000000815260040161176590613bb5565b60405180910390fd5b80601560146101000a81548160ff02191690831515021790555050565b60606001805461179a90613c04565b80601f01602080910402602001604051908101604052809291908181526020018280546117c690613c04565b80156118135780601f106117e857610100808354040283529160200191611813565b820191906000526020600020905b8154815290600101906020018083116117f657829003601f168201915b5050505050905090565b6118256121ae565b73ffffffffffffffffffffffffffffffffffffffff16611843611642565b73ffffffffffffffffffffffffffffffffffffffff1614611899576040517f08c379a000000000000000000000000000000000000000000000000000000000815260040161189090613bb5565b60405180910390fd5b60008173ffffffffffffffffffffffffffffffffffffffff166370a08231306040518263ffffffff1660e01b81526004016118d491906135cb565b602060405180830381865afa1580156118f1573d6000803e3d6000fd5b505050506040513d601f19601f820116820180604052508101906119159190614150565b90508173ffffffffffffffffffffffffffffffffffffffff1663a9059cbb61193b611642565b836040518363ffffffff1660e01b815260040161195992919061417d565b6020604051808303816000875af1158015611978573d6000803e3d6000fd5b505050506040513d601f19601f8201168201806040525081019061199c91906141bb565b505050565b60125481565b600e60009054906101000a900460ff166119f6576040517f08c379a00000000000000000000000000000000000000000000000000000000081526004016119ed90614234565b60405180910390fd5b3373ffffffffffffffffffffffffffffffffffffffff163273ffffffffffffffffffffffffffffffffffffffff1614611a64576040517f08c379a0000000000000000000000000000000000000000000000000000000008152600401611a5b906142a0565b60405180910390fd5b60135481601460003373ffffffffffffffffffffffffffffffffffffffff1673ffffffffffffffffffffffffffffffffffffffff16815260200190815260200160002054611ab291906142ef565b1115611af3576040517f08c379a0000000000000000000000000000000000000000000000000000000008152600401611aea90614391565b60405180910390fd5b80601254611b0191906143b1565b3414611b42576040517f08c379a0000000000000000000000000000000000000000000000000000000008152600401611b3990614457565b60405180910390fd5b80601460003373ffffffffffffffffffffffffffffffffffffffff1673ffffffffffffffffffffffffffffffffffffffff16815260200190815260200160002054611b8d91906142ef565b601460003373ffffffffffffffffffffffffffffffffffffffff1673ffffffffffffffffffffffffffffffffffffffff16815260200190815260200160002081905550611bda33826122db565b50565b611bef611be86121ae565b83836127d7565b5050565b60606000611c008361147c565b67ffffffffffffffff811115611c1957611c186136ad565b5b604051908082528060200260200182016040528015611c475781602001602082028036833780820191505090505b5090506000805b611c578561147c565b811015611ca457611c688582610eae565b838380611c7490614477565b945081518110611c8757611c86613fe8565b5b60200260200101818152505080611c9d90614477565b9050611c4e565b508192505050919050565b611cc0611cba6121ae565b836123d7565b611cff576040517f08c379a0000000000000000000000000000000000000000000000000000000008152600401611cf690613e5e565b60405180910390fd5b611d0b84848484612944565b50505050565b600e60009054906101000a900460ff1681565b6060611d2f826121b6565b611d6e576040517f08c379a0000000000000000000000000000000000000000000000000000000008152600401611d6590614532565b60405180910390fd5b601560149054906101000a900460ff16611e1457600d8054611d8f90613c04565b80601f0160208091040260200160405190810160405280929190818152602001828054611dbb90613c04565b8015611e085780601f10611ddd57610100808354040283529160200191611e08565b820191906000526020600020905b815481529060010190602001808311611deb57829003601f168201915b50505050509050611e42565b600c611e1f836129a0565b604051602001611e3092919061466e565b60405160208183030381529060405290505b919050565b60115481565b600181565b611e5a6121ae565b73ffffffffffffffffffffffffffffffffffffffff16611e78611642565b73ffffffffffffffffffffffffffffffffffffffff1614611ece576040517f08c379a0000000000000000000000000000000000000000000000000000000008152600401611ec590613bb5565b60405180910390fd5b80600e60006101000a81548160ff0219169083151502179055507f97f29479c7c44b7656bf427eb93a9dadcd6b4a3d900a3ac5df9de43a867de5d081604051611f1791906133f8565b60405180910390a150565b6000600660008473ffffffffffffffffffffffffffffffffffffffff1673ffffffffffffffffffffffffffffffffffffffff16815260200190815260200160002060008373ffffffffffffffffffffffffffffffffffffffff1673ffffffffffffffffffffffffffffffffffffffff16815260200190815260200160002060009054906101000a900460ff16905092915050565b611fbe6121ae565b73ffffffffffffffffffffffffffffffffffffffff16611fdc611642565b73ffffffffffffffffffffffffffffffffffffffff1614612032576040517f08c379a000000000000000000000000000000000000000000000000000000000815260040161202990613bb5565b60405180910390fd5b600073ffffffffffffffffffffffffffffffffffffffff168173ffffffffffffffffffffffffffffffffffffffff1614156120a2576040517f08c379a00000000000000000000000000000000000000000000000000000000081526004016120999061470f565b60405180910390fd5b6120ab81612711565b50565b6120b66121ae565b73ffffffffffffffffffffffffffffffffffffffff166120d4611642565b73ffffffffffffffffffffffffffffffffffffffff161461212a576040517f08c379a000000000000000000000000000000000000000000000000000000000815260040161212190613bb5565b60405180910390fd5b80600d90805190602001906121409291906132a1565b5050565b60007f01ffc9a7000000000000000000000000000000000000000000000000000000007bffffffffffffffffffffffffffffffffffffffffffffffffffffffff1916827bffffffffffffffffffffffffffffffffffffffffffffffffffffffff1916149050919050565b600033905090565b60008073ffffffffffffffffffffffffffffffffffffffff166003600084815260200190815260200160002060009054906101000a900473ffffffffffffffffffffffffffffffffffffffff1673ffffffffffffffffffffffffffffffffffffffff1614159050919050565b816005600083815260200190815260200160002060006101000a81548173ffffffffffffffffffffffffffffffffffffffff021916908373ffffffffffffffffffffffffffffffffffffffff160217905550808273ffffffffffffffffffffffffffffffffffffffff1661229583611228565b73ffffffffffffffffffffffffffffffffffffffff167f8c5be1e5ebec7d5bd14f71427d1e84f3dd0314c0f7b2291e5b200ac8c7c3b92560405160405180910390a45050565b6000600f5490506011546010546122f2919061472f565b82826122fe91906142ef565b111561233f576040517f08c379a0000000000000000000000000000000000000000000000000000000008152600401612336906147af565b60405180910390fd5b60008211612382576040517f08c379a00000000000000000000000000000000000000000000000000000000081526004016123799061481b565b60405180910390fd5b6000600190505b8281116123b8576123a58482846123a091906142ef565b612b01565b80806123b090614477565b915050612389565b5081600f60008282546123cb91906142ef565b92505081905550505050565b60006123e2826121b6565b612421576040517f08c379a0000000000000000000000000000000000000000000000000000000008152600401612418906148ad565b60405180910390fd5b600061242c83611228565b90508073ffffffffffffffffffffffffffffffffffffffff168473ffffffffffffffffffffffffffffffffffffffff16148061249b57508373ffffffffffffffffffffffffffffffffffffffff1661248384610c1c565b73ffffffffffffffffffffffffffffffffffffffff16145b806124ac57506124ab8185611f22565b5b91505092915050565b8273ffffffffffffffffffffffffffffffffffffffff166124d582611228565b73ffffffffffffffffffffffffffffffffffffffff161461252b576040517f08c379a00000000000000000000000000000000000000000000000000000000081526004016125229061493f565b60405180910390fd5b600073ffffffffffffffffffffffffffffffffffffffff168273ffffffffffffffffffffffffffffffffffffffff16141561259b576040517f08c379a0000000000000000000000000000000000000000000000000000000008152600401612592906149d1565b60405180910390fd5b6125a6838383612ce7565b6125b1600082612222565b6001600460008573ffffffffffffffffffffffffffffffffffffffff1673ffffffffffffffffffffffffffffffffffffffff1681526020019081526020016000206000828254612601919061472f565b925050819055506001600460008473ffffffffffffffffffffffffffffffffffffffff1673ffffffffffffffffffffffffffffffffffffffff168152602001908152602001600020600082825461265891906142ef565b92505081905550816003600083815260200190815260200160002060006101000a81548173ffffffffffffffffffffffffffffffffffffffff021916908373ffffffffffffffffffffffffffffffffffffffff160217905550808273ffffffffffffffffffffffffffffffffffffffff168473ffffffffffffffffffffffffffffffffffffffff167fddf252ad1be2c89b69c2b068fc378daa952ba7f163c4a11628f55a4df523b3ef60405160405180910390a4505050565b6000600b60009054906101000a900473ffffffffffffffffffffffffffffffffffffffff16905081600b60006101000a81548173ffffffffffffffffffffffffffffffffffffffff021916908373ffffffffffffffffffffffffffffffffffffffff1602179055508173ffffffffffffffffffffffffffffffffffffffff168173ffffffffffffffffffffffffffffffffffffffff167f8be0079c531659141344cd1fd0a4f28419497f9722a3daafe3b4186f6b6457e060405160405180910390a35050565b8173ffffffffffffffffffffffffffffffffffffffff168373ffffffffffffffffffffffffffffffffffffffff161415612846576040517f08c379a000000000000000000000000000000000000000000000000000000000815260040161283d90614a3d565b60405180910390fd5b80600660008573ffffffffffffffffffffffffffffffffffffffff1673ffffffffffffffffffffffffffffffffffffffff16815260200190815260200160002060008473ffffffffffffffffffffffffffffffffffffffff1673ffffffffffffffffffffffffffffffffffffffff16815260200190815260200160002060006101000a81548160ff0219169083151502179055508173ffffffffffffffffffffffffffffffffffffffff168373ffffffffffffffffffffffffffffffffffffffff167f17307eab39ab6107e8899845ad3d59bd9653f200f220920489ca2b5937696c318360405161293791906133f8565b60405180910390a3505050565b61294f8484846124b5565b61295b84848484612df0565b61299a576040517f08c379a000000000000000000000000000000000000000000000000000000000815260040161299190614acf565b60405180910390fd5b50505050565b606060008214156129e8576040518060400160405280600181526020017f30000000000000000000000000000000000000000000000000000000000000008152509050612afc565b600082905060005b60008214612a1a578080612a0390614477565b915050600a82612a139190614b1e565b91506129f0565b60008167ffffffffffffffff811115612a3657612a356136ad565b5b6040519080825280601f01601f191660200182016040528015612a685781602001600182028036833780820191505090505b5090505b60008514612af557600182612a81919061472f565b9150600a85612a909190614b4f565b6030612a9c91906142ef565b60f81b818381518110612ab257612ab1613fe8565b5b60200101907effffffffffffffffffffffffffffffffffffffffffffffffffffffffffffff1916908160001a905350600a85612aee9190614b1e565b9450612a6c565b8093505050505b919050565b600073ffffffffffffffffffffffffffffffffffffffff168273ffffffffffffffffffffffffffffffffffffffff161415612b71576040517f08c379a0000000000000000000000000000000000000000000000000000000008152600401612b6890614bcc565b60405180910390fd5b612b7a816121b6565b15612bba576040517f08c379a0000000000000000000000000000000000000000000000000000000008152600401612bb190614c38565b60405180910390fd5b612bc660008383612ce7565b6001600460008473ffffffffffffffffffffffffffffffffffffffff1673ffffffffffffffffffffffffffffffffffffffff1681526020019081526020016000206000828254612c1691906142ef565b92505081905550816003600083815260200190815260200160002060006101000a81548173ffffffffffffffffffffffffffffffffffffffff021916908373ffffffffffffffffffffffffffffffffffffffff16021790555060026000815480929190612c8290614477565b9190505550808273ffffffffffffffffffffffffffffffffffffffff16600073ffffffffffffffffffffffffffffffffffffffff167fddf252ad1be2c89b69c2b068fc378daa952ba7f163c4a11628f55a4df523b3ef60405160405180910390a45050565b600073ffffffffffffffffffffffffffffffffffffffff168373ffffffffffffffffffffffffffffffffffffffff161415612d2a57612d2581612f78565b612d69565b8173ffffffffffffffffffffffffffffffffffffffff168373ffffffffffffffffffffffffffffffffffffffff1614612d6857612d678382612fc1565b5b5b600073ffffffffffffffffffffffffffffffffffffffff168273ffffffffffffffffffffffffffffffffffffffff161415612dac57612da78161312e565b612deb565b8273ffffffffffffffffffffffffffffffffffffffff168273ffffffffffffffffffffffffffffffffffffffff1614612dea57612de982826131ff565b5b5b505050565b6000612e118473ffffffffffffffffffffffffffffffffffffffff1661327e565b15612f6b578373ffffffffffffffffffffffffffffffffffffffff1663150b7a02612e3a6121ae565b8786866040518563ffffffff1660e01b8152600401612e5c9493929190614cad565b6020604051808303816000875af1925050508015612e9857506040513d601f19601f82011682018060405250810190612e959190614d0e565b60015b612f1b573d8060008114612ec8576040519150601f19603f3d011682016040523d82523d6000602084013e612ecd565b606091505b50600081511415612f13576040517f08c379a0000000000000000000000000000000000000000000000000000000008152600401612f0a90614acf565b60405180910390fd5b805181602001fd5b63150b7a0260e01b7bffffffffffffffffffffffffffffffffffffffffffffffffffffffff1916817bffffffffffffffffffffffffffffffffffffffffffffffffffffffff191614915050612f70565b600190505b949350505050565b600980549050600a600083815260200190815260200160002081905550600981908060018154018082558091505060019003906000526020600020016000909190919091505550565b60006001612fce8461147c565b612fd8919061472f565b90506000600860008481526020019081526020016000205490508181146130bd576000600760008673ffffffffffffffffffffffffffffffffffffffff1673ffffffffffffffffffffffffffffffffffffffff168152602001908152602001600020600084815260200190815260200160002054905080600760008773ffffffffffffffffffffffffffffffffffffffff1673ffffffffffffffffffffffffffffffffffffffff168152602001908152602001600020600084815260200190815260200160002081905550816008600083815260200190815260200160002081905550505b6008600084815260200190815260200160002060009055600760008573ffffffffffffffffffffffffffffffffffffffff1673ffffffffffffffffffffffffffffffffffffffff16815260200190815260200160002060008381526020019081526020016000206000905550505050565b60006001600980549050613142919061472f565b90506000600a600084815260200190815260200160002054905060006009838154811061317257613171613fe8565b5b90600052602060002001549050806009838154811061319457613193613fe8565b5b906000526020600020018190555081600a600083815260200190815260200160002081905550600a60008581526020019081526020016000206000905560098054806131e3576131e2614d3b565b5b6001900381819060005260206000200160009055905550505050565b600061320a8361147c565b905081600760008573ffffffffffffffffffffffffffffffffffffffff1673ffffffffffffffffffffffffffffffffffffffff168152602001908152602001600020600083815260200190815260200160002081905550806008600084815260200190815260200160002081905550505050565b6000808273ffffffffffffffffffffffffffffffffffffffff163b119050919050565b8280546132ad90613c04565b90600052602060002090601f0160209004810192826132cf5760008555613316565b82601f106132e857805160ff1916838001178555613316565b82800160010185558215613316579182015b828111156133155782518255916020019190600101906132fa565b5b5090506133239190613327565b5090565b5b80821115613340576000816000905550600101613328565b5090565b6000604051905090565b600080fd5b600080fd5b60007fffffffff0000000000000000000000000000000000000000000000000000000082169050919050565b61338d81613358565b811461339857600080fd5b50565b6000813590506133aa81613384565b92915050565b6000602082840312156133c6576133c561334e565b5b60006133d48482850161339b565b91505092915050565b60008115159050919050565b6133f2816133dd565b82525050565b600060208201905061340d60008301846133e9565b92915050565b600073ffffffffffffffffffffffffffffffffffffffff82169050919050565b600061343e82613413565b9050919050565b61344e81613433565b811461345957600080fd5b50565b60008135905061346b81613445565b92915050565b6000602082840312156134875761348661334e565b5b60006134958482850161345c565b91505092915050565b600081519050919050565b600082825260208201905092915050565b60005b838110156134d85780820151818401526020810190506134bd565b838111156134e7576000848401525b50505050565b6000601f19601f8301169050919050565b60006135098261349e565b61351381856134a9565b93506135238185602086016134ba565b61352c816134ed565b840191505092915050565b6000602082019050818103600083015261355181846134fe565b905092915050565b6000819050919050565b61356c81613559565b811461357757600080fd5b50565b60008135905061358981613563565b92915050565b6000602082840312156135a5576135a461334e565b5b60006135b38482850161357a565b91505092915050565b6135c581613433565b82525050565b60006020820190506135e060008301846135bc565b92915050565b600080604083850312156135fd576135fc61334e565b5b600061360b8582860161345c565b925050602061361c8582860161357a565b9150509250929050565b61362f81613559565b82525050565b600060208201905061364a6000830184613626565b92915050565b6000806000606084860312156136695761366861334e565b5b60006136778682870161345c565b93505060206136888682870161345c565b92505060406136998682870161357a565b9150509250925092565b600080fd5b600080fd5b7f4e487b7100000000000000000000000000000000000000000000000000000000600052604160045260246000fd5b6136e5826134ed565b810181811067ffffffffffffffff82111715613704576137036136ad565b5b80604052505050565b6000613717613344565b905061372382826136dc565b919050565b600067ffffffffffffffff821115613743576137426136ad565b5b61374c826134ed565b9050602081019050919050565b82818337600083830152505050565b600061377b61377684613728565b61370d565b905082815260208101848484011115613797576137966136a8565b5b6137a2848285613759565b509392505050565b600082601f8301126137bf576137be6136a3565b5b81356137cf848260208601613768565b91505092915050565b6000602082840312156137ee576137ed61334e565b5b600082013567ffffffffffffffff81111561380c5761380b613353565b5b613818848285016137aa565b91505092915050565b61382a816133dd565b811461383557600080fd5b50565b60008135905061384781613821565b92915050565b6000602082840312156138635761386261334e565b5b600061387184828501613838565b91505092915050565b600061388582613433565b9050919050565b6138958161387a565b81146138a057600080fd5b50565b6000813590506138b28161388c565b92915050565b6000602082840312156138ce576138cd61334e565b5b60006138dc848285016138a3565b91505092915050565b600080604083850312156138fc576138fb61334e565b5b600061390a8582860161345c565b925050602061391b85828601613838565b9150509250929050565b600081519050919050565b600082825260208201905092915050565b6000819050602082019050919050565b61395a81613559565b82525050565b600061396c8383613951565b60208301905092915050565b6000602082019050919050565b600061399082613925565b61399a8185613930565b93506139a583613941565b8060005b838110156139d65781516139bd8882613960565b97506139c883613978565b9250506001810190506139a9565b5085935050505092915050565b600060208201905081810360008301526139fd8184613985565b905092915050565b600067ffffffffffffffff821115613a2057613a1f6136ad565b5b613a29826134ed565b9050602081019050919050565b6000613a49613a4484613a05565b61370d565b905082815260208101848484011115613a6557613a646136a8565b5b613a70848285613759565b509392505050565b600082601f830112613a8d57613a8c6136a3565b5b8135613a9d848260208601613a36565b91505092915050565b60008060008060808587031215613ac057613abf61334e565b5b6000613ace8782880161345c565b9450506020613adf8782880161345c565b9350506040613af08782880161357a565b925050606085013567ffffffffffffffff811115613b1157613b10613353565b5b613b1d87828801613a78565b91505092959194509250565b60008060408385031215613b4057613b3f61334e565b5b6000613b4e8582860161345c565b9250506020613b5f8582860161345c565b9150509250929050565b7f4f776e61626c653a2063616c6c6572206973206e6f7420746865206f776e6572600082015250565b6000613b9f6020836134a9565b9150613baa82613b69565b602082019050919050565b60006020820190508181036000830152613bce81613b92565b9050919050565b7f4e487b7100000000000000000000000000000000000000000000000000000000600052602260045260246000fd5b60006002820490506001821680613c1c57607f821691505b60208210811415613c3057613c2f613bd5565b5b50919050565b7f4552433732313a20617070726f76656420717565727920666f72206e6f6e657860008201527f697374656e7420746f6b656e0000000000000000000000000000000000000000602082015250565b6000613c92602c836134a9565b9150613c9d82613c36565b604082019050919050565b60006020820190508181036000830152613cc181613c85565b9050919050565b7f4552433732313a20617070726f76616c20746f2063757272656e74206f776e6560008201527f7200000000000000000000000000000000000000000000000000000000000000602082015250565b6000613d246021836134a9565b9150613d2f82613cc8565b604082019050919050565b60006020820190508181036000830152613d5381613d17565b9050919050565b7f4552433732313a20617070726f76652063616c6c6572206973206e6f74206f7760008201527f6e6572206e6f7220617070726f76656420666f7220616c6c0000000000000000602082015250565b6000613db66038836134a9565b9150613dc182613d5a565b604082019050919050565b60006020820190508181036000830152613de581613da9565b9050919050565b7f4552433732313a207472616e736665722063616c6c6572206973206e6f74206f60008201527f776e6572206e6f7220617070726f766564000000000000000000000000000000602082015250565b6000613e486031836134a9565b9150613e5382613dec565b604082019050919050565b60006020820190508181036000830152613e7781613e3b565b9050919050565b7f455243373231456e756d657261626c653a206f776e657220696e646578206f7560008201527f74206f6620626f756e6473000000000000000000000000000000000000000000602082015250565b6000613eda602b836134a9565b9150613ee582613e7e565b604082019050919050565b60006020820190508181036000830152613f0981613ecd565b9050919050565b600081905092915050565b50565b6000613f2b600083613f10565b9150613f3682613f1b565b600082019050919050565b6000613f4c82613f1e565b9150819050919050565b7f455243373231456e756d657261626c653a20676c6f62616c20696e646578206f60008201527f7574206f6620626f756e64730000000000000000000000000000000000000000602082015250565b6000613fb2602c836134a9565b9150613fbd82613f56565b604082019050919050565b60006020820190508181036000830152613fe181613fa5565b9050919050565b7f4e487b7100000000000000000000000000000000000000000000000000000000600052603260045260246000fd5b7f4552433732313a206f776e657220717565727920666f72206e6f6e657869737460008201527f656e7420746f6b656e0000000000000000000000000000000000000000000000602082015250565b60006140736029836134a9565b915061407e82614017565b604082019050919050565b600060208201905081810360008301526140a281614066565b9050919050565b7f4552433732313a2062616c616e636520717565727920666f7220746865207a6560008201527f726f206164647265737300000000000000000000000000000000000000000000602082015250565b6000614105602a836134a9565b9150614110826140a9565b604082019050919050565b60006020820190508181036000830152614134816140f8565b9050919050565b60008151905061414a81613563565b92915050565b6000602082840312156141665761416561334e565b5b60006141748482850161413b565b91505092915050565b600060408201905061419260008301856135bc565b61419f6020830184613626565b9392505050565b6000815190506141b581613821565b92915050565b6000602082840312156141d1576141d061334e565b5b60006141df848285016141a6565b91505092915050565b7f5055424c49435f53414c455f4e4f545f41435449564500000000000000000000600082015250565b600061421e6016836134a9565b9150614229826141e8565b602082019050919050565b6000602082019050818103600083015261424d81614211565b9050919050565b7f434f4e54524143545f43414c4c00000000000000000000000000000000000000600082015250565b600061428a600d836134a9565b915061429582614254565b602082019050919050565b600060208201905081810360008301526142b98161427d565b9050919050565b7f4e487b7100000000000000000000000000000000000000000000000000000000600052601160045260246000fd5b60006142fa82613559565b915061430583613559565b9250827fffffffffffffffffffffffffffffffffffffffffffffffffffffffffffffffff0382111561433a576143396142c0565b5b828201905092915050565b7f455843454544535f4c494d495400000000000000000000000000000000000000600082015250565b600061437b600d836134a9565b915061438682614345565b602082019050919050565b600060208201905081810360008301526143aa8161436e565b9050919050565b60006143bc82613559565b91506143c783613559565b9250817fffffffffffffffffffffffffffffffffffffffffffffffffffffffffffffffff0483118215151615614400576143ff6142c0565b5b828202905092915050565b7f494e434f52524543545f56414c55450000000000000000000000000000000000600082015250565b6000614441600f836134a9565b915061444c8261440b565b602082019050919050565b6000602082019050818103600083015261447081614434565b9050919050565b600061448282613559565b91507fffffffffffffffffffffffffffffffffffffffffffffffffffffffffffffffff8214156144b5576144b46142c0565b5b600182019050919050565b7f4552433732314d657461646174613a2055524920717565727920666f72206e6f60008201527f6e6578697374656e7420746f6b656e0000000000000000000000000000000000602082015250565b600061451c602f836134a9565b9150614527826144c0565b604082019050919050565b6000602082019050818103600083015261454b8161450f565b9050919050565b600081905092915050565b60008190508160005260206000209050919050565b6000815461457f81613c04565b6145898186614552565b945060018216600081146145a457600181146145b5576145e8565b60ff198316865281860193506145e8565b6145be8561455d565b60005b838110156145e0578154818901526001820191506020810190506145c1565b838801955050505b50505092915050565b60006145fc8261349e565b6146068185614552565b93506146168185602086016134ba565b80840191505092915050565b7f2e6a736f6e000000000000000000000000000000000000000000000000000000600082015250565b6000614658600583614552565b915061466382614622565b600582019050919050565b600061467a8285614572565b915061468682846145f1565b91506146918261464b565b91508190509392505050565b7f4f776e61626c653a206e6577206f776e657220697320746865207a65726f206160008201527f6464726573730000000000000000000000000000000000000000000000000000602082015250565b60006146f96026836134a9565b91506147048261469d565b604082019050919050565b60006020820190508181036000830152614728816146ec565b9050919050565b600061473a82613559565b915061474583613559565b925082821015614758576147576142c0565b5b828203905092915050565b7f4d41585f535550504c595f524541434845440000000000000000000000000000600082015250565b60006147996012836134a9565b91506147a482614763565b602082019050919050565b600060208201905081810360008301526147c88161478c565b9050919050565b7f4d5553545f42455f475245415445525f30000000000000000000000000000000600082015250565b60006148056011836134a9565b9150614810826147cf565b602082019050919050565b60006020820190508181036000830152614834816147f8565b9050919050565b7f4552433732313a206f70657261746f7220717565727920666f72206e6f6e657860008201527f697374656e7420746f6b656e0000000000000000000000000000000000000000602082015250565b6000614897602c836134a9565b91506148a28261483b565b604082019050919050565b600060208201905081810360008301526148c68161488a565b9050919050565b7f4552433732313a207472616e73666572206f6620746f6b656e2074686174206960008201527f73206e6f74206f776e0000000000000000000000000000000000000000000000602082015250565b60006149296029836134a9565b9150614934826148cd565b604082019050919050565b600060208201905081810360008301526149588161491c565b9050919050565b7f4552433732313a207472616e7366657220746f20746865207a65726f2061646460008201527f7265737300000000000000000000000000000000000000000000000000000000602082015250565b60006149bb6024836134a9565b91506149c68261495f565b604082019050919050565b600060208201905081810360008301526149ea816149ae565b9050919050565b7f4552433732313a20617070726f766520746f2063616c6c657200000000000000600082015250565b6000614a276019836134a9565b9150614a32826149f1565b602082019050919050565b60006020820190508181036000830152614a5681614a1a565b9050919050565b7f4552433732313a207472616e7366657220746f206e6f6e20455243373231526560008201527f63656976657220696d706c656d656e7465720000000000000000000000000000602082015250565b6000614ab96032836134a9565b9150614ac482614a5d565b604082019050919050565b60006020820190508181036000830152614ae881614aac565b9050919050565b7f4e487b7100000000000000000000000000000000000000000000000000000000600052601260045260246000fd5b6000614b2982613559565b9150614b3483613559565b925082614b4457614b43614aef565b5b828204905092915050565b6000614b5a82613559565b9150614b6583613559565b925082614b7557614b74614aef565b5b828206905092915050565b7f4552433732313a206d696e7420746f20746865207a65726f2061646472657373600082015250565b6000614bb66020836134a9565b9150614bc182614b80565b602082019050919050565b60006020820190508181036000830152614be581614ba9565b9050919050565b7f4552433732313a20746f6b656e20616c7265616479206d696e74656400000000600082015250565b6000614c22601c836134a9565b9150614c2d82614bec565b602082019050919050565b60006020820190508181036000830152614c5181614c15565b9050919050565b600081519050919050565b600082825260208201905092915050565b6000614c7f82614c58565b614c898185614c63565b9350614c998185602086016134ba565b614ca2816134ed565b840191505092915050565b6000608082019050614cc260008301876135bc565b614ccf60208301866135bc565b614cdc6040830185613626565b8181036060830152614cee8184614c74565b905095945050505050565b600081519050614d0881613384565b92915050565b600060208284031215614d2457614d2361334e565b5b6000614d3284828501614cf9565b91505092915050565b7f4e487b7100000000000000000000000000000000000000000000000000000000600052603160045260246000fdfea264697066735822122050379e6a787a066c8723b7af66e3a36d6051616698247dea5e215468e14fdfab64736f6c634300080b0033697066733a2f2f516d524c6e757264774c68326f3167735671636a746f48746f4a703336674a413477336f58516e385279344570442f537472656574736f662e6a736f6e",
  "linkReferences": {},
  "deployedLinkReferences": {}
}