{
  "_format": "hh-sol-artifact-1",
  "contractName": "Streetsof",
  "sourceName": "contracts/Streetsof.sol",
  "abi": [
    {
      "inputs": [],
      "stateMutability": "nonpayable",
      "type": "constructor"
    },
    {
      "anonymous": false,
      "inputs": [
        {
          "indexed": true,
          "internalType": "address",
          "name": "owner",
          "type": "address"
        },
        {
          "indexed": true,
          "internalType": "address",
          "name": "approved",
          "type": "address"
        },
        {
          "indexed": true,
          "internalType": "uint256",
          "name": "tokenId",
          "type": "uint256"
        }
      ],
      "name": "Approval",
      "type": "event"
    },
    {
      "anonymous": false,
      "inputs": [
        {
          "indexed": true,
          "internalType": "address",
          "name": "owner",
          "type": "address"
        },
        {
          "indexed": true,
          "internalType": "address",
          "name": "operator",
          "type": "address"
        },
        {
          "indexed": false,
          "internalType": "bool",
          "name": "approved",
          "type": "bool"
        }
      ],
      "name": "ApprovalForAll",
      "type": "event"
    },
    {
      "anonymous": false,
      "inputs": [
        {
          "indexed": true,
          "internalType": "address",
          "name": "previousOwner",
          "type": "address"
        },
        {
          "indexed": true,
          "internalType": "address",
          "name": "newOwner",
          "type": "address"
        }
      ],
      "name": "OwnershipTransferred",
      "type": "event"
    },
    {
      "anonymous": false,
      "inputs": [
        {
          "indexed": false,
          "internalType": "bool",
          "name": "active",
          "type": "bool"
        }
      ],
      "name": "SaleStateUpdate",
      "type": "event"
    },
    {
      "anonymous": false,
      "inputs": [
        {
          "indexed": true,
          "internalType": "address",
          "name": "from",
          "type": "address"
        },
        {
          "indexed": true,
          "internalType": "address",
          "name": "to",
          "type": "address"
        },
        {
          "indexed": true,
          "internalType": "uint256",
          "name": "tokenId",
          "type": "uint256"
        }
      ],
      "name": "Transfer",
      "type": "event"
    },
    {
      "inputs": [],
      "name": "MAX_SUPPLY",
      "outputs": [
        {
          "internalType": "uint256",
          "name": "",
          "type": "uint256"
        }
      ],
      "stateMutability": "view",
      "type": "function"
    },
    {
      "inputs": [],
      "name": "PREMINT_AMOUNT",
      "outputs": [
        {
          "internalType": "uint256",
          "name": "",
          "type": "uint256"
        }
      ],
      "stateMutability": "view",
      "type": "function"
    },
    {
      "inputs": [],
      "name": "RESERVED_AMOUNT",
      "outputs": [
        {
          "internalType": "uint256",
          "name": "",
          "type": "uint256"
        }
      ],
      "stateMutability": "view",
      "type": "function"
    },
    {
      "inputs": [
        {
          "internalType": "address",
          "name": "",
          "type": "address"
        }
      ],
      "name": "_publicMinted",
      "outputs": [
        {
          "internalType": "uint256",
          "name": "",
          "type": "uint256"
        }
      ],
      "stateMutability": "view",
      "type": "function"
    },
    {
      "inputs": [
        {
          "internalType": "address",
          "name": "to",
          "type": "address"
        },
        {
          "internalType": "uint256",
          "name": "tokenId",
          "type": "uint256"
        }
      ],
      "name": "approve",
      "outputs": [],
      "stateMutability": "nonpayable",
      "type": "function"
    },
    {
      "inputs": [
        {
          "internalType": "address",
          "name": "owner",
          "type": "address"
        }
      ],
      "name": "balanceOf",
      "outputs": [
        {
          "internalType": "uint256",
          "name": "",
          "type": "uint256"
        }
      ],
      "stateMutability": "view",
      "type": "function"
    },
    {
      "inputs": [],
      "name": "baseURI",
      "outputs": [
        {
          "internalType": "string",
          "name": "",
          "type": "string"
        }
      ],
      "stateMutability": "view",
      "type": "function"
    },
    {
      "inputs": [
        {
          "internalType": "uint256",
          "name": "tokenId",
          "type": "uint256"
        }
      ],
      "name": "getApproved",
      "outputs": [
        {
          "internalType": "address",
          "name": "",
          "type": "address"
        }
      ],
      "stateMutability": "view",
      "type": "function"
    },
    {
      "inputs": [
        {
          "internalType": "address",
          "name": "owner",
          "type": "address"
        },
        {
          "internalType": "address",
          "name": "operator",
          "type": "address"
        }
      ],
      "name": "isApprovedForAll",
      "outputs": [
        {
          "internalType": "bool",
          "name": "",
          "type": "bool"
        }
      ],
      "stateMutability": "view",
      "type": "function"
    },
    {
      "inputs": [
        {
          "internalType": "uint256",
          "name": "amount",
          "type": "uint256"
        }
      ],
      "name": "mint",
      "outputs": [],
      "stateMutability": "payable",
      "type": "function"
    },
    {
      "inputs": [],
      "name": "name",
      "outputs": [
        {
          "internalType": "string",
          "name": "",
          "type": "string"
        }
      ],
      "stateMutability": "view",
      "type": "function"
    },
    {
      "inputs": [
        {
          "internalType": "uint256",
          "name": "amount",
          "type": "uint256"
        }
      ],
      "name": "ownMint",
      "outputs": [],
      "stateMutability": "nonpayable",
      "type": "function"
    },
    {
      "inputs": [],
      "name": "owner",
      "outputs": [
        {
          "internalType": "address",
          "name": "",
          "type": "address"
        }
      ],
      "stateMutability": "view",
      "type": "function"
    },
    {
      "inputs": [
        {
          "internalType": "uint256",
          "name": "tokenId",
          "type": "uint256"
        }
      ],
      "name": "ownerOf",
      "outputs": [
        {
          "internalType": "address",
          "name": "",
          "type": "address"
        }
      ],
      "stateMutability": "view",
      "type": "function"
    },
    {
      "inputs": [],
      "name": "price",
      "outputs": [
        {
          "internalType": "uint256",
          "name": "",
          "type": "uint256"
        }
      ],
      "stateMutability": "view",
      "type": "function"
    },
    {
      "inputs": [],
      "name": "publicSaleActive",
      "outputs": [
        {
          "internalType": "bool",
          "name": "",
          "type": "bool"
        }
      ],
      "stateMutability": "view",
      "type": "function"
    },
    {
      "inputs": [],
      "name": "purchaseLimit",
      "outputs": [
        {
          "internalType": "uint256",
          "name": "",
          "type": "uint256"
        }
      ],
      "stateMutability": "view",
      "type": "function"
    },
    {
      "inputs": [
        {
          "internalType": "contract IERC20",
          "name": "token",
          "type": "address"
        }
      ],
      "name": "recoverToken",
      "outputs": [],
      "stateMutability": "nonpayable",
      "type": "function"
    },
    {
      "inputs": [],
      "name": "renounceOwnership",
      "outputs": [],
      "stateMutability": "nonpayable",
      "type": "function"
    },
    {
      "inputs": [
        {
          "internalType": "bool",
          "name": "value",
          "type": "bool"
        }
      ],
      "name": "reveal",
      "outputs": [],
      "stateMutability": "nonpayable",
      "type": "function"
    },
    {
      "inputs": [],
      "name": "revealed",
      "outputs": [
        {
          "internalType": "bool",
          "name": "",
          "type": "bool"
        }
      ],
      "stateMutability": "view",
      "type": "function"
    },
    {
      "inputs": [
        {
          "internalType": "address",
          "name": "from",
          "type": "address"
        },
        {
          "internalType": "address",
          "name": "to",
          "type": "address"
        },
        {
          "internalType": "uint256",
          "name": "tokenId",
          "type": "uint256"
        }
      ],
      "name": "safeTransferFrom",
      "outputs": [],
      "stateMutability": "nonpayable",
      "type": "function"
    },
    {
      "inputs": [
        {
          "internalType": "address",
          "name": "from",
          "type": "address"
        },
        {
          "internalType": "address",
          "name": "to",
          "type": "address"
        },
        {
          "internalType": "uint256",
          "name": "tokenId",
          "type": "uint256"
        },
        {
          "internalType": "bytes",
          "name": "_data",
          "type": "bytes"
        }
      ],
      "name": "safeTransferFrom",
      "outputs": [],
      "stateMutability": "nonpayable",
      "type": "function"
    },
    {
      "inputs": [
        {
          "internalType": "address",
          "name": "operator",
          "type": "address"
        },
        {
          "internalType": "bool",
          "name": "approved",
          "type": "bool"
        }
      ],
      "name": "setApprovalForAll",
      "outputs": [],
      "stateMutability": "nonpayable",
      "type": "function"
    },
    {
      "inputs": [
        {
          "internalType": "string",
          "name": "_baseURI",
          "type": "string"
        }
      ],
      "name": "setBaseURI",
      "outputs": [],
      "stateMutability": "nonpayable",
      "type": "function"
    },
    {
      "inputs": [
        {
          "internalType": "uint256",
          "name": "price_",
          "type": "uint256"
        }
      ],
      "name": "setPrice",
      "outputs": [],
      "stateMutability": "nonpayable",
      "type": "function"
    },
    {
      "inputs": [
        {
          "internalType": "bool",
          "name": "active",
          "type": "bool"
        }
      ],
      "name": "setPublicSaleActive",
      "outputs": [],
      "stateMutability": "nonpayable",
      "type": "function"
    },
    {
      "inputs": [
        {
          "internalType": "uint256",
          "name": "limit",
          "type": "uint256"
        }
      ],
      "name": "setPurchaseLimit",
      "outputs": [],
      "stateMutability": "nonpayable",
      "type": "function"
    },
    {
      "inputs": [
        {
          "internalType": "uint256",
          "name": "value",
          "type": "uint256"
        }
      ],
      "name": "setReserve",
      "outputs": [],
      "stateMutability": "nonpayable",
      "type": "function"
    },
    {
      "inputs": [
        {
          "internalType": "address",
          "name": "address_",
          "type": "address"
        }
      ],
      "name": "setSignerAddress",
      "outputs": [],
      "stateMutability": "nonpayable",
      "type": "function"
    },
    {
      "inputs": [
        {
          "internalType": "string",
          "name": "_uri",
          "type": "string"
        }
      ],
      "name": "setUnrevealedURI",
      "outputs": [],
      "stateMutability": "nonpayable",
      "type": "function"
    },
    {
      "inputs": [
        {
          "internalType": "bytes4",
          "name": "interfaceId",
          "type": "bytes4"
        }
      ],
      "name": "supportsInterface",
      "outputs": [
        {
          "internalType": "bool",
          "name": "",
          "type": "bool"
        }
      ],
      "stateMutability": "view",
      "type": "function"
    },
    {
      "inputs": [],
      "name": "symbol",
      "outputs": [
        {
          "internalType": "string",
          "name": "",
          "type": "string"
        }
      ],
      "stateMutability": "view",
      "type": "function"
    },
    {
      "inputs": [
        {
          "internalType": "uint256",
          "name": "index",
          "type": "uint256"
        }
      ],
      "name": "tokenByIndex",
      "outputs": [
        {
          "internalType": "uint256",
          "name": "",
          "type": "uint256"
        }
      ],
      "stateMutability": "view",
      "type": "function"
    },
    {
      "inputs": [
        {
          "internalType": "address",
          "name": "owner",
          "type": "address"
        }
      ],
      "name": "tokenIdsOf",
      "outputs": [
        {
          "internalType": "uint256[]",
          "name": "",
          "type": "uint256[]"
        }
      ],
      "stateMutability": "view",
      "type": "function"
    },
    {
      "inputs": [
        {
          "internalType": "address",
          "name": "owner",
          "type": "address"
        },
        {
          "internalType": "uint256",
          "name": "index",
          "type": "uint256"
        }
      ],
      "name": "tokenOfOwnerByIndex",
      "outputs": [
        {
          "internalType": "uint256",
          "name": "",
          "type": "uint256"
        }
      ],
      "stateMutability": "view",
      "type": "function"
    },
    {
      "inputs": [
        {
          "internalType": "uint256",
          "name": "tokenId",
          "type": "uint256"
        }
      ],
      "name": "tokenURI",
      "outputs": [
        {
          "internalType": "string",
          "name": "",
          "type": "string"
        }
      ],
      "stateMutability": "view",
      "type": "function"
    },
    {
      "inputs": [],
      "name": "totalSupply",
      "outputs": [
        {
          "internalType": "uint256",
          "name": "",
          "type": "uint256"
        }
      ],
      "stateMutability": "view",
      "type": "function"
    },
    {
      "inputs": [
        {
          "internalType": "address",
          "name": "from",
          "type": "address"
        },
        {
          "internalType": "address",
          "name": "to",
          "type": "address"
        },
        {
          "internalType": "uint256",
          "name": "tokenId",
          "type": "uint256"
        }
      ],
      "name": "transferFrom",
      "outputs": [],
      "stateMutability": "nonpayable",
      "type": "function"
    },
    {
      "inputs": [
        {
          "internalType": "address",
          "name": "newOwner",
          "type": "address"
        }
      ],
      "name": "transferOwnership",
      "outputs": [],
      "stateMutability": "nonpayable",
      "type": "function"
    },
    {
      "inputs": [],
      "name": "unrevealedURI",
      "outputs": [
        {
          "internalType": "string",
          "name": "",
          "type": "string"
        }
      ],
      "stateMutability": "view",
      "type": "function"
    },
    {
      "inputs": [],
      "name": "withdraw",
      "outputs": [],
      "stateMutability": "payable",
      "type": "function"
    }
  ],
  "bytecode": "0x60806040526040518060400160405280600b81526020017f697066733a2f2f6e6f6e65000000000000000000000000000000000000000000815250600c90805190602001906200005192919062000b44565b5060405180608001604052806044815260200162005d3560449139600d90805190602001906200008392919062000b44565b5060006010556000601155600160125573f473d7647ca5e5f39582f2308bace8be8b7770b8601460006101000a81548173ffffffffffffffffffffffffffffffffffffffff021916908373ffffffffffffffffffffffffffffffffffffffff16021790555060006014806101000a81548160ff0219169083151502179055503480156200010f57600080fd5b506040518060400160405280600981526020017f537472656574736f6600000000000000000000000000000000000000000000008152506040518060400160405280600981526020017f535452454554534f46000000000000000000000000000000000000000000000081525081600090805190602001906200019492919062000b44565b508060019080519060200190620001ad92919062000b44565b505050620001d0620001c4620001e960201b60201c565b620001f160201b60201c565b620001e3336001620002b760201b60201c565b62001047565b600033905090565b6000600b60009054906101000a900473ffffffffffffffffffffffffffffffffffffffff16905081600b60006101000a81548173ffffffffffffffffffffffffffffffffffffffff021916908373ffffffffffffffffffffffffffffffffffffffff1602179055508173ffffffffffffffffffffffffffffffffffffffff168173ffffffffffffffffffffffffffffffffffffffff167f8be0079c531659141344cd1fd0a4f28419497f9722a3daafe3b4186f6b6457e060405160405180910390a35050565b6000600f5490506010546101f4620002d0919062000c2d565b8282620002de919062000c68565b111562000322576040517f08c379a0000000000000000000000000000000000000000000000000000000008152600401620003199062000d26565b60405180910390fd5b6000821162000368576040517f08c379a00000000000000000000000000000000000000000000000000000000081526004016200035f9062000d98565b60405180910390fd5b60005b82811015620003a9576200039384828462000387919062000c68565b620003ca60201b60201c565b8080620003a09062000dba565b9150506200036b565b5081600f6000828254620003be919062000c68565b92505081905550505050565b600073ffffffffffffffffffffffffffffffffffffffff168273ffffffffffffffffffffffffffffffffffffffff1614156200043d576040517f08c379a0000000000000000000000000000000000000000000000000000000008152600401620004349062000e58565b60405180910390fd5b6200044e81620005ca60201b60201c565b1562000491576040517f08c379a0000000000000000000000000000000000000000000000000000000008152600401620004889062000eca565b60405180910390fd5b620004a5600083836200063660201b60201c565b6001600460008473ffffffffffffffffffffffffffffffffffffffff1673ffffffffffffffffffffffffffffffffffffffff1681526020019081526020016000206000828254620004f7919062000c68565b92505081905550816003600083815260200190815260200160002060006101000a81548173ffffffffffffffffffffffffffffffffffffffff021916908373ffffffffffffffffffffffffffffffffffffffff16021790555060026000815480929190620005659062000dba565b9190505550808273ffffffffffffffffffffffffffffffffffffffff16600073ffffffffffffffffffffffffffffffffffffffff167fddf252ad1be2c89b69c2b068fc378daa952ba7f163c4a11628f55a4df523b3ef60405160405180910390a45050565b60008073ffffffffffffffffffffffffffffffffffffffff166003600084815260200190815260200160002060009054906101000a900473ffffffffffffffffffffffffffffffffffffffff1673ffffffffffffffffffffffffffffffffffffffff1614159050919050565b600073ffffffffffffffffffffffffffffffffffffffff168373ffffffffffffffffffffffffffffffffffffffff16141562000683576200067d816200076560201b60201c565b620006cb565b8173ffffffffffffffffffffffffffffffffffffffff168373ffffffffffffffffffffffffffffffffffffffff1614620006ca57620006c98382620007ae60201b60201c565b5b5b600073ffffffffffffffffffffffffffffffffffffffff168273ffffffffffffffffffffffffffffffffffffffff161415620007185762000712816200092660201b60201c565b62000760565b8273ffffffffffffffffffffffffffffffffffffffff168273ffffffffffffffffffffffffffffffffffffffff16146200075f576200075e828262000a0260201b60201c565b5b5b505050565b600980549050600a600083815260200190815260200160002081905550600981908060018154018082558091505060019003906000526020600020016000909190919091505550565b60006001620007c38462000a8960201b60201c565b620007cf919062000c2d565b9050600060086000848152602001908152602001600020549050818114620008b5576000600760008673ffffffffffffffffffffffffffffffffffffffff1673ffffffffffffffffffffffffffffffffffffffff168152602001908152602001600020600084815260200190815260200160002054905080600760008773ffffffffffffffffffffffffffffffffffffffff1673ffffffffffffffffffffffffffffffffffffffff168152602001908152602001600020600084815260200190815260200160002081905550816008600083815260200190815260200160002081905550505b6008600084815260200190815260200160002060009055600760008573ffffffffffffffffffffffffffffffffffffffff1673ffffffffffffffffffffffffffffffffffffffff16815260200190815260200160002060008381526020019081526020016000206000905550505050565b600060016009805490506200093c919062000c2d565b90506000600a60008481526020019081526020016000205490506000600983815481106200096f576200096e62000eec565b5b90600052602060002001549050806009838154811062000994576200099362000eec565b5b906000526020600020018190555081600a600083815260200190815260200160002081905550600a6000858152602001908152602001600020600090556009805480620009e657620009e562000f1b565b5b6001900381819060005260206000200160009055905550505050565b600062000a158362000a8960201b60201c565b905081600760008573ffffffffffffffffffffffffffffffffffffffff1673ffffffffffffffffffffffffffffffffffffffff168152602001908152602001600020600083815260200190815260200160002081905550806008600084815260200190815260200160002081905550505050565b60008073ffffffffffffffffffffffffffffffffffffffff168273ffffffffffffffffffffffffffffffffffffffff16141562000afd576040517f08c379a000000000000000000000000000000000000000000000000000000000815260040162000af49062000fc0565b60405180910390fd5b600460008373ffffffffffffffffffffffffffffffffffffffff1673ffffffffffffffffffffffffffffffffffffffff168152602001908152602001600020549050919050565b82805462000b529062001011565b90600052602060002090601f01602090048101928262000b76576000855562000bc2565b82601f1062000b9157805160ff191683800117855562000bc2565b8280016001018555821562000bc2579182015b8281111562000bc157825182559160200191906001019062000ba4565b5b50905062000bd1919062000bd5565b5090565b5b8082111562000bf057600081600090555060010162000bd6565b5090565b6000819050919050565b7f4e487b7100000000000000000000000000000000000000000000000000000000600052601160045260246000fd5b600062000c3a8262000bf4565b915062000c478362000bf4565b92508282101562000c5d5762000c5c62000bfe565b5b828203905092915050565b600062000c758262000bf4565b915062000c828362000bf4565b9250827fffffffffffffffffffffffffffffffffffffffffffffffffffffffffffffffff0382111562000cba5762000cb962000bfe565b5b828201905092915050565b600082825260208201905092915050565b7f4d41585f535550504c595f524541434845440000000000000000000000000000600082015250565b600062000d0e60128362000cc5565b915062000d1b8262000cd6565b602082019050919050565b6000602082019050818103600083015262000d418162000cff565b9050919050565b7f4d5553545f42455f475245415445525f30000000000000000000000000000000600082015250565b600062000d8060118362000cc5565b915062000d8d8262000d48565b602082019050919050565b6000602082019050818103600083015262000db38162000d71565b9050919050565b600062000dc78262000bf4565b91507fffffffffffffffffffffffffffffffffffffffffffffffffffffffffffffffff82141562000dfd5762000dfc62000bfe565b5b600182019050919050565b7f4552433732313a206d696e7420746f20746865207a65726f2061646472657373600082015250565b600062000e4060208362000cc5565b915062000e4d8262000e08565b602082019050919050565b6000602082019050818103600083015262000e738162000e31565b9050919050565b7f4552433732313a20746f6b656e20616c7265616479206d696e74656400000000600082015250565b600062000eb2601c8362000cc5565b915062000ebf8262000e7a565b602082019050919050565b6000602082019050818103600083015262000ee58162000ea3565b9050919050565b7f4e487b7100000000000000000000000000000000000000000000000000000000600052603260045260246000fd5b7f4e487b7100000000000000000000000000000000000000000000000000000000600052603160045260246000fd5b7f4552433732313a2062616c616e636520717565727920666f7220746865207a6560008201527f726f206164647265737300000000000000000000000000000000000000000000602082015250565b600062000fa8602a8362000cc5565b915062000fb58262000f4a565b604082019050919050565b6000602082019050818103600083015262000fdb8162000f99565b9050919050565b7f4e487b7100000000000000000000000000000000000000000000000000000000600052602260045260246000fd5b600060028204905060018216806200102a57607f821691505b6020821081141562001041576200104062000fe2565b5b50919050565b614cde80620010576000396000f3fe6080604052600436106102515760003560e01c80637035bf1811610139578063a22cb465116100b6578063d85f27401161007a578063d85f2740146108a6578063e15c1730146108d1578063e2e06fa3146108fc578063e985e9c514610925578063f2fde38b14610962578063fe2c7fee1461098b57610251565b8063a22cb465146107af578063a3b261f2146107d8578063b88d4fde14610815578063bc8893b41461083e578063c87b56dd1461086957610251565b8063940cd05b116100fd578063940cd05b146106eb57806395d89b41146107145780639be65a601461073f578063a035b1fe14610768578063a0712d681461079357610251565b80637035bf181461061857806370a0823114610643578063715018a6146106805780638da5cb5b1461069757806391b7f5ed146106c257610251565b806332cb6b0c116101d2578063518302271161019657806351830227146104f657806355f804b314610521578063581ea1361461054a5780636352211e146105875780636c0360eb146105c45780636edc4388146105ef57610251565b806332cb6b0c146104325780633ccfd60b1461045d5780634256dbe31461046757806342842e0e146104905780634f6ccce7146104b957610251565b806318160ddd1161021957806318160ddd1461034d57806318886657146103785780632062121d146103a357806323b872dd146103cc5780632f745c59146103f557610251565b806301ffc9a714610256578063046dc1661461029357806306fdde03146102bc578063081812fc146102e7578063095ea7b314610324575b600080fd5b34801561026257600080fd5b5061027d600480360381019061027891906132ee565b6109b4565b60405161028a9190613336565b60405180910390f35b34801561029f57600080fd5b506102ba60048036038101906102b591906133af565b610a96565b005b3480156102c857600080fd5b506102d1610b56565b6040516102de9190613475565b60405180910390f35b3480156102f357600080fd5b5061030e600480360381019061030991906134cd565b610be8565b60405161031b9190613509565b60405180910390f35b34801561033057600080fd5b5061034b60048036038101906103469190613524565b610c6d565b005b34801561035957600080fd5b50610362610d85565b60405161036f9190613573565b60405180910390f35b34801561038457600080fd5b5061038d610d8b565b60405161039a9190613573565b60405180910390f35b3480156103af57600080fd5b506103ca60048036038101906103c591906134cd565b610d91565b005b3480156103d857600080fd5b506103f360048036038101906103ee919061358e565b610e1a565b005b34801561040157600080fd5b5061041c60048036038101906104179190613524565b610e7a565b6040516104299190613573565b60405180910390f35b34801561043e57600080fd5b50610447610f1f565b6040516104549190613573565b60405180910390f35b610465610f25565b005b34801561047357600080fd5b5061048e600480360381019061048991906134cd565b611021565b005b34801561049c57600080fd5b506104b760048036038101906104b2919061358e565b6110a7565b005b3480156104c557600080fd5b506104e060048036038101906104db91906134cd565b6110c7565b6040516104ed9190613573565b60405180910390f35b34801561050257600080fd5b5061050b611133565b6040516105189190613336565b60405180910390f35b34801561052d57600080fd5b5061054860048036038101906105439190613716565b611144565b005b34801561055657600080fd5b50610571600480360381019061056c91906133af565b6111da565b60405161057e9190613573565b60405180910390f35b34801561059357600080fd5b506105ae60048036038101906105a991906134cd565b6111f2565b6040516105bb9190613509565b60405180910390f35b3480156105d057600080fd5b506105d96112a4565b6040516105e69190613475565b60405180910390f35b3480156105fb57600080fd5b50610616600480360381019061061191906134cd565b611332565b005b34801561062457600080fd5b5061062d6113b8565b60405161063a9190613475565b60405180910390f35b34801561064f57600080fd5b5061066a600480360381019061066591906133af565b611446565b6040516106779190613573565b60405180910390f35b34801561068c57600080fd5b506106956114fe565b005b3480156106a357600080fd5b506106ac611586565b6040516106b99190613509565b60405180910390f35b3480156106ce57600080fd5b506106e960048036038101906106e491906134cd565b6115b0565b005b3480156106f757600080fd5b50610712600480360381019061070d919061378b565b611636565b005b34801561072057600080fd5b506107296116ce565b6040516107369190613475565b60405180910390f35b34801561074b57600080fd5b50610766600480360381019061076191906137f6565b611760565b005b34801561077457600080fd5b5061077d6118e4565b60405161078a9190613573565b60405180910390f35b6107ad60048036038101906107a891906134cd565b6118ea565b005b3480156107bb57600080fd5b506107d660048036038101906107d19190613823565b611b20565b005b3480156107e457600080fd5b506107ff60048036038101906107fa91906133af565b611b36565b60405161080c9190613921565b60405180910390f35b34801561082157600080fd5b5061083c600480360381019061083791906139e4565b611bf2565b005b34801561084a57600080fd5b50610853611c54565b6040516108609190613336565b60405180910390f35b34801561087557600080fd5b50610890600480360381019061088b91906134cd565b611c67565b60405161089d9190613475565b60405180910390f35b3480156108b257600080fd5b506108bb611d88565b6040516108c89190613573565b60405180910390f35b3480156108dd57600080fd5b506108e6611d8e565b6040516108f39190613573565b60405180910390f35b34801561090857600080fd5b50610923600480360381019061091e919061378b565b611d93565b005b34801561093157600080fd5b5061094c60048036038101906109479190613a67565b611e63565b6040516109599190613336565b60405180910390f35b34801561096e57600080fd5b50610989600480360381019061098491906133af565b611ef7565b005b34801561099757600080fd5b506109b260048036038101906109ad9190613716565b611fef565b005b60007f80ac58cd000000000000000000000000000000000000000000000000000000007bffffffffffffffffffffffffffffffffffffffffffffffffffffffff1916827bffffffffffffffffffffffffffffffffffffffffffffffffffffffff19161480610a7f57507f5b5e139f000000000000000000000000000000000000000000000000000000007bffffffffffffffffffffffffffffffffffffffffffffffffffffffff1916827bffffffffffffffffffffffffffffffffffffffffffffffffffffffff1916145b80610a8f5750610a8e82612085565b5b9050919050565b610a9e6120ef565b73ffffffffffffffffffffffffffffffffffffffff16610abc611586565b73ffffffffffffffffffffffffffffffffffffffff1614610b12576040517f08c379a0000000000000000000000000000000000000000000000000000000008152600401610b0990613af3565b60405180910390fd5b80601460006101000a81548173ffffffffffffffffffffffffffffffffffffffff021916908373ffffffffffffffffffffffffffffffffffffffff16021790555050565b606060008054610b6590613b42565b80601f0160208091040260200160405190810160405280929190818152602001828054610b9190613b42565b8015610bde5780601f10610bb357610100808354040283529160200191610bde565b820191906000526020600020905b815481529060010190602001808311610bc157829003601f168201915b5050505050905090565b6000610bf3826120f7565b610c32576040517f08c379a0000000000000000000000000000000000000000000000000000000008152600401610c2990613be6565b60405180910390fd5b6005600083815260200190815260200160002060009054906101000a900473ffffffffffffffffffffffffffffffffffffffff169050919050565b6000610c78826111f2565b90508073ffffffffffffffffffffffffffffffffffffffff168373ffffffffffffffffffffffffffffffffffffffff161415610ce9576040517f08c379a0000000000000000000000000000000000000000000000000000000008152600401610ce090613c78565b60405180910390fd5b8073ffffffffffffffffffffffffffffffffffffffff16610d086120ef565b73ffffffffffffffffffffffffffffffffffffffff161480610d375750610d3681610d316120ef565b611e63565b5b610d76576040517f08c379a0000000000000000000000000000000000000000000000000000000008152600401610d6d90613d0a565b60405180910390fd5b610d808383612163565b505050565b600f5481565b60125481565b610d996120ef565b73ffffffffffffffffffffffffffffffffffffffff16610db7611586565b73ffffffffffffffffffffffffffffffffffffffff1614610e0d576040517f08c379a0000000000000000000000000000000000000000000000000000000008152600401610e0490613af3565b60405180910390fd5b610e17338261221c565b50565b610e2b610e256120ef565b82612315565b610e6a576040517f08c379a0000000000000000000000000000000000000000000000000000000008152600401610e6190613d9c565b60405180910390fd5b610e758383836123f3565b505050565b6000610e8583611446565b8210610ec6576040517f08c379a0000000000000000000000000000000000000000000000000000000008152600401610ebd90613e2e565b60405180910390fd5b600760008473ffffffffffffffffffffffffffffffffffffffff1673ffffffffffffffffffffffffffffffffffffffff168152602001908152602001600020600083815260200190815260200160002054905092915050565b6101f481565b610f2d6120ef565b73ffffffffffffffffffffffffffffffffffffffff16610f4b611586565b73ffffffffffffffffffffffffffffffffffffffff1614610fa1576040517f08c379a0000000000000000000000000000000000000000000000000000000008152600401610f9890613af3565b60405180910390fd5b6000610fab611586565b73ffffffffffffffffffffffffffffffffffffffff1647604051610fce90613e7f565b60006040518083038185875af1925050503d806000811461100b576040519150601f19603f3d011682016040523d82523d6000602084013e611010565b606091505b505090508061101e57600080fd5b50565b6110296120ef565b73ffffffffffffffffffffffffffffffffffffffff16611047611586565b73ffffffffffffffffffffffffffffffffffffffff161461109d576040517f08c379a000000000000000000000000000000000000000000000000000000000815260040161109490613af3565b60405180910390fd5b8060108190555050565b6110c283838360405180602001604052806000815250611bf2565b505050565b6000600254821061110d576040517f08c379a000000000000000000000000000000000000000000000000000000000815260040161110490613f06565b60405180910390fd5b6009828154811061112157611120613f26565b5b90600052602060002001549050919050565b60148054906101000a900460ff1681565b61114c6120ef565b73ffffffffffffffffffffffffffffffffffffffff1661116a611586565b73ffffffffffffffffffffffffffffffffffffffff16146111c0576040517f08c379a00000000000000000000000000000000000000000000000000000000081526004016111b790613af3565b60405180910390fd5b80600c90805190602001906111d69291906131df565b5050565b60136020528060005260406000206000915090505481565b6000806003600084815260200190815260200160002060009054906101000a900473ffffffffffffffffffffffffffffffffffffffff169050600073ffffffffffffffffffffffffffffffffffffffff168173ffffffffffffffffffffffffffffffffffffffff16141561129b576040517f08c379a000000000000000000000000000000000000000000000000000000000815260040161129290613fc7565b60405180910390fd5b80915050919050565b600c80546112b190613b42565b80601f01602080910402602001604051908101604052809291908181526020018280546112dd90613b42565b801561132a5780601f106112ff5761010080835404028352916020019161132a565b820191906000526020600020905b81548152906001019060200180831161130d57829003601f168201915b505050505081565b61133a6120ef565b73ffffffffffffffffffffffffffffffffffffffff16611358611586565b73ffffffffffffffffffffffffffffffffffffffff16146113ae576040517f08c379a00000000000000000000000000000000000000000000000000000000081526004016113a590613af3565b60405180910390fd5b8060128190555050565b600d80546113c590613b42565b80601f01602080910402602001604051908101604052809291908181526020018280546113f190613b42565b801561143e5780601f106114135761010080835404028352916020019161143e565b820191906000526020600020905b81548152906001019060200180831161142157829003601f168201915b505050505081565b60008073ffffffffffffffffffffffffffffffffffffffff168273ffffffffffffffffffffffffffffffffffffffff1614156114b7576040517f08c379a00000000000000000000000000000000000000000000000000000000081526004016114ae90614059565b60405180910390fd5b600460008373ffffffffffffffffffffffffffffffffffffffff1673ffffffffffffffffffffffffffffffffffffffff168152602001908152602001600020549050919050565b6115066120ef565b73ffffffffffffffffffffffffffffffffffffffff16611524611586565b73ffffffffffffffffffffffffffffffffffffffff161461157a576040517f08c379a000000000000000000000000000000000000000000000000000000000815260040161157190613af3565b60405180910390fd5b611584600061264f565b565b6000600b60009054906101000a900473ffffffffffffffffffffffffffffffffffffffff16905090565b6115b86120ef565b73ffffffffffffffffffffffffffffffffffffffff166115d6611586565b73ffffffffffffffffffffffffffffffffffffffff161461162c576040517f08c379a000000000000000000000000000000000000000000000000000000000815260040161162390613af3565b60405180910390fd5b8060118190555050565b61163e6120ef565b73ffffffffffffffffffffffffffffffffffffffff1661165c611586565b73ffffffffffffffffffffffffffffffffffffffff16146116b2576040517f08c379a00000000000000000000000000000000000000000000000000000000081526004016116a990613af3565b60405180910390fd5b806014806101000a81548160ff02191690831515021790555050565b6060600180546116dd90613b42565b80601f016020809104026020016040519081016040528092919081815260200182805461170990613b42565b80156117565780601f1061172b57610100808354040283529160200191611756565b820191906000526020600020905b81548152906001019060200180831161173957829003601f168201915b5050505050905090565b6117686120ef565b73ffffffffffffffffffffffffffffffffffffffff16611786611586565b73ffffffffffffffffffffffffffffffffffffffff16146117dc576040517f08c379a00000000000000000000000000000000000000000000000000000000081526004016117d390613af3565b60405180910390fd5b60008173ffffffffffffffffffffffffffffffffffffffff166370a08231306040518263ffffffff1660e01b81526004016118179190613509565b602060405180830381865afa158015611834573d6000803e3d6000fd5b505050506040513d601f19601f82011682018060405250810190611858919061408e565b90508173ffffffffffffffffffffffffffffffffffffffff1663a9059cbb61187e611586565b836040518363ffffffff1660e01b815260040161189c9291906140bb565b6020604051808303816000875af11580156118bb573d6000803e3d6000fd5b505050506040513d601f19601f820116820180604052508101906118df91906140f9565b505050565b60115481565b600e60009054906101000a900460ff16611939576040517f08c379a000000000000000000000000000000000000000000000000000000000815260040161193090614172565b60405180910390fd5b3373ffffffffffffffffffffffffffffffffffffffff163273ffffffffffffffffffffffffffffffffffffffff16146119a7576040517f08c379a000000000000000000000000000000000000000000000000000000000815260040161199e906141de565b60405180910390fd5b60125481601360003373ffffffffffffffffffffffffffffffffffffffff1673ffffffffffffffffffffffffffffffffffffffff168152602001908152602001600020546119f5919061422d565b1115611a36576040517f08c379a0000000000000000000000000000000000000000000000000000000008152600401611a2d906142cf565b60405180910390fd5b80601154611a4491906142ef565b3414611a85576040517f08c379a0000000000000000000000000000000000000000000000000000000008152600401611a7c90614395565b60405180910390fd5b80601360003373ffffffffffffffffffffffffffffffffffffffff1673ffffffffffffffffffffffffffffffffffffffff16815260200190815260200160002054611ad0919061422d565b601360003373ffffffffffffffffffffffffffffffffffffffff1673ffffffffffffffffffffffffffffffffffffffff16815260200190815260200160002081905550611b1d338261221c565b50565b611b32611b2b6120ef565b8383612715565b5050565b60606000611b4383611446565b67ffffffffffffffff811115611b5c57611b5b6135eb565b5b604051908082528060200260200182016040528015611b8a5781602001602082028036833780820191505090505b5090506000805b611b9a85611446565b811015611be757611bab8582610e7a565b838380611bb7906143b5565b945081518110611bca57611bc9613f26565b5b60200260200101818152505080611be0906143b5565b9050611b91565b508192505050919050565b611c03611bfd6120ef565b83612315565b611c42576040517f08c379a0000000000000000000000000000000000000000000000000000000008152600401611c3990613d9c565b60405180910390fd5b611c4e84848484612882565b50505050565b600e60009054906101000a900460ff1681565b6060611c72826120f7565b611cb1576040517f08c379a0000000000000000000000000000000000000000000000000000000008152600401611ca890614470565b60405180910390fd5b60148054906101000a900460ff16611d5557600d8054611cd090613b42565b80601f0160208091040260200160405190810160405280929190818152602001828054611cfc90613b42565b8015611d495780601f10611d1e57610100808354040283529160200191611d49565b820191906000526020600020905b815481529060010190602001808311611d2c57829003601f168201915b50505050509050611d83565b600c611d60836128de565b604051602001611d719291906145ac565b60405160208183030381529060405290505b919050565b60105481565b600181565b611d9b6120ef565b73ffffffffffffffffffffffffffffffffffffffff16611db9611586565b73ffffffffffffffffffffffffffffffffffffffff1614611e0f576040517f08c379a0000000000000000000000000000000000000000000000000000000008152600401611e0690613af3565b60405180910390fd5b80600e60006101000a81548160ff0219169083151502179055507f97f29479c7c44b7656bf427eb93a9dadcd6b4a3d900a3ac5df9de43a867de5d081604051611e589190613336565b60405180910390a150565b6000600660008473ffffffffffffffffffffffffffffffffffffffff1673ffffffffffffffffffffffffffffffffffffffff16815260200190815260200160002060008373ffffffffffffffffffffffffffffffffffffffff1673ffffffffffffffffffffffffffffffffffffffff16815260200190815260200160002060009054906101000a900460ff16905092915050565b611eff6120ef565b73ffffffffffffffffffffffffffffffffffffffff16611f1d611586565b73ffffffffffffffffffffffffffffffffffffffff1614611f73576040517f08c379a0000000000000000000000000000000000000000000000000000000008152600401611f6a90613af3565b60405180910390fd5b600073ffffffffffffffffffffffffffffffffffffffff168173ffffffffffffffffffffffffffffffffffffffff161415611fe3576040517f08c379a0000000000000000000000000000000000000000000000000000000008152600401611fda9061464d565b60405180910390fd5b611fec8161264f565b50565b611ff76120ef565b73ffffffffffffffffffffffffffffffffffffffff16612015611586565b73ffffffffffffffffffffffffffffffffffffffff161461206b576040517f08c379a000000000000000000000000000000000000000000000000000000000815260040161206290613af3565b60405180910390fd5b80600d90805190602001906120819291906131df565b5050565b60007f01ffc9a7000000000000000000000000000000000000000000000000000000007bffffffffffffffffffffffffffffffffffffffffffffffffffffffff1916827bffffffffffffffffffffffffffffffffffffffffffffffffffffffff1916149050919050565b600033905090565b60008073ffffffffffffffffffffffffffffffffffffffff166003600084815260200190815260200160002060009054906101000a900473ffffffffffffffffffffffffffffffffffffffff1673ffffffffffffffffffffffffffffffffffffffff1614159050919050565b816005600083815260200190815260200160002060006101000a81548173ffffffffffffffffffffffffffffffffffffffff021916908373ffffffffffffffffffffffffffffffffffffffff160217905550808273ffffffffffffffffffffffffffffffffffffffff166121d6836111f2565b73ffffffffffffffffffffffffffffffffffffffff167f8c5be1e5ebec7d5bd14f71427d1e84f3dd0314c0f7b2291e5b200ac8c7c3b92560405160405180910390a45050565b6000600f5490506010546101f4612233919061466d565b828261223f919061422d565b1115612280576040517f08c379a0000000000000000000000000000000000000000000000000000000008152600401612277906146ed565b60405180910390fd5b600082116122c3576040517f08c379a00000000000000000000000000000000000000000000000000000000081526004016122ba90614759565b60405180910390fd5b60005b828110156122f6576122e38482846122de919061422d565b612a3f565b80806122ee906143b5565b9150506122c6565b5081600f6000828254612309919061422d565b92505081905550505050565b6000612320826120f7565b61235f576040517f08c379a0000000000000000000000000000000000000000000000000000000008152600401612356906147eb565b60405180910390fd5b600061236a836111f2565b90508073ffffffffffffffffffffffffffffffffffffffff168473ffffffffffffffffffffffffffffffffffffffff1614806123d957508373ffffffffffffffffffffffffffffffffffffffff166123c184610be8565b73ffffffffffffffffffffffffffffffffffffffff16145b806123ea57506123e98185611e63565b5b91505092915050565b8273ffffffffffffffffffffffffffffffffffffffff16612413826111f2565b73ffffffffffffffffffffffffffffffffffffffff1614612469576040517f08c379a00000000000000000000000000000000000000000000000000000000081526004016124609061487d565b60405180910390fd5b600073ffffffffffffffffffffffffffffffffffffffff168273ffffffffffffffffffffffffffffffffffffffff1614156124d9576040517f08c379a00000000000000000000000000000000000000000000000000000000081526004016124d09061490f565b60405180910390fd5b6124e4838383612c25565b6124ef600082612163565b6001600460008573ffffffffffffffffffffffffffffffffffffffff1673ffffffffffffffffffffffffffffffffffffffff168152602001908152602001600020600082825461253f919061466d565b925050819055506001600460008473ffffffffffffffffffffffffffffffffffffffff1673ffffffffffffffffffffffffffffffffffffffff1681526020019081526020016000206000828254612596919061422d565b92505081905550816003600083815260200190815260200160002060006101000a81548173ffffffffffffffffffffffffffffffffffffffff021916908373ffffffffffffffffffffffffffffffffffffffff160217905550808273ffffffffffffffffffffffffffffffffffffffff168473ffffffffffffffffffffffffffffffffffffffff167fddf252ad1be2c89b69c2b068fc378daa952ba7f163c4a11628f55a4df523b3ef60405160405180910390a4505050565b6000600b60009054906101000a900473ffffffffffffffffffffffffffffffffffffffff16905081600b60006101000a81548173ffffffffffffffffffffffffffffffffffffffff021916908373ffffffffffffffffffffffffffffffffffffffff1602179055508173ffffffffffffffffffffffffffffffffffffffff168173ffffffffffffffffffffffffffffffffffffffff167f8be0079c531659141344cd1fd0a4f28419497f9722a3daafe3b4186f6b6457e060405160405180910390a35050565b8173ffffffffffffffffffffffffffffffffffffffff168373ffffffffffffffffffffffffffffffffffffffff161415612784576040517f08c379a000000000000000000000000000000000000000000000000000000000815260040161277b9061497b565b60405180910390fd5b80600660008573ffffffffffffffffffffffffffffffffffffffff1673ffffffffffffffffffffffffffffffffffffffff16815260200190815260200160002060008473ffffffffffffffffffffffffffffffffffffffff1673ffffffffffffffffffffffffffffffffffffffff16815260200190815260200160002060006101000a81548160ff0219169083151502179055508173ffffffffffffffffffffffffffffffffffffffff168373ffffffffffffffffffffffffffffffffffffffff167f17307eab39ab6107e8899845ad3d59bd9653f200f220920489ca2b5937696c31836040516128759190613336565b60405180910390a3505050565b61288d8484846123f3565b61289984848484612d2e565b6128d8576040517f08c379a00000000000000000000000000000000000000000000000000000000081526004016128cf90614a0d565b60405180910390fd5b50505050565b60606000821415612926576040518060400160405280600181526020017f30000000000000000000000000000000000000000000000000000000000000008152509050612a3a565b600082905060005b60008214612958578080612941906143b5565b915050600a826129519190614a5c565b915061292e565b60008167ffffffffffffffff811115612974576129736135eb565b5b6040519080825280601f01601f1916602001820160405280156129a65781602001600182028036833780820191505090505b5090505b60008514612a33576001826129bf919061466d565b9150600a856129ce9190614a8d565b60306129da919061422d565b60f81b8183815181106129f0576129ef613f26565b5b60200101907effffffffffffffffffffffffffffffffffffffffffffffffffffffffffffff1916908160001a905350600a85612a2c9190614a5c565b94506129aa565b8093505050505b919050565b600073ffffffffffffffffffffffffffffffffffffffff168273ffffffffffffffffffffffffffffffffffffffff161415612aaf576040517f08c379a0000000000000000000000000000000000000000000000000000000008152600401612aa690614b0a565b60405180910390fd5b612ab8816120f7565b15612af8576040517f08c379a0000000000000000000000000000000000000000000000000000000008152600401612aef90614b76565b60405180910390fd5b612b0460008383612c25565b6001600460008473ffffffffffffffffffffffffffffffffffffffff1673ffffffffffffffffffffffffffffffffffffffff1681526020019081526020016000206000828254612b54919061422d565b92505081905550816003600083815260200190815260200160002060006101000a81548173ffffffffffffffffffffffffffffffffffffffff021916908373ffffffffffffffffffffffffffffffffffffffff16021790555060026000815480929190612bc0906143b5565b9190505550808273ffffffffffffffffffffffffffffffffffffffff16600073ffffffffffffffffffffffffffffffffffffffff167fddf252ad1be2c89b69c2b068fc378daa952ba7f163c4a11628f55a4df523b3ef60405160405180910390a45050565b600073ffffffffffffffffffffffffffffffffffffffff168373ffffffffffffffffffffffffffffffffffffffff161415612c6857612c6381612eb6565b612ca7565b8173ffffffffffffffffffffffffffffffffffffffff168373ffffffffffffffffffffffffffffffffffffffff1614612ca657612ca58382612eff565b5b5b600073ffffffffffffffffffffffffffffffffffffffff168273ffffffffffffffffffffffffffffffffffffffff161415612cea57612ce58161306c565b612d29565b8273ffffffffffffffffffffffffffffffffffffffff168273ffffffffffffffffffffffffffffffffffffffff1614612d2857612d27828261313d565b5b5b505050565b6000612d4f8473ffffffffffffffffffffffffffffffffffffffff166131bc565b15612ea9578373ffffffffffffffffffffffffffffffffffffffff1663150b7a02612d786120ef565b8786866040518563ffffffff1660e01b8152600401612d9a9493929190614beb565b6020604051808303816000875af1925050508015612dd657506040513d601f19601f82011682018060405250810190612dd39190614c4c565b60015b612e59573d8060008114612e06576040519150601f19603f3d011682016040523d82523d6000602084013e612e0b565b606091505b50600081511415612e51576040517f08c379a0000000000000000000000000000000000000000000000000000000008152600401612e4890614a0d565b60405180910390fd5b805181602001fd5b63150b7a0260e01b7bffffffffffffffffffffffffffffffffffffffffffffffffffffffff1916817bffffffffffffffffffffffffffffffffffffffffffffffffffffffff191614915050612eae565b600190505b949350505050565b600980549050600a600083815260200190815260200160002081905550600981908060018154018082558091505060019003906000526020600020016000909190919091505550565b60006001612f0c84611446565b612f16919061466d565b9050600060086000848152602001908152602001600020549050818114612ffb576000600760008673ffffffffffffffffffffffffffffffffffffffff1673ffffffffffffffffffffffffffffffffffffffff168152602001908152602001600020600084815260200190815260200160002054905080600760008773ffffffffffffffffffffffffffffffffffffffff1673ffffffffffffffffffffffffffffffffffffffff168152602001908152602001600020600084815260200190815260200160002081905550816008600083815260200190815260200160002081905550505b6008600084815260200190815260200160002060009055600760008573ffffffffffffffffffffffffffffffffffffffff1673ffffffffffffffffffffffffffffffffffffffff16815260200190815260200160002060008381526020019081526020016000206000905550505050565b60006001600980549050613080919061466d565b90506000600a60008481526020019081526020016000205490506000600983815481106130b0576130af613f26565b5b9060005260206000200154905080600983815481106130d2576130d1613f26565b5b906000526020600020018190555081600a600083815260200190815260200160002081905550600a600085815260200190815260200160002060009055600980548061312157613120614c79565b5b6001900381819060005260206000200160009055905550505050565b600061314883611446565b905081600760008573ffffffffffffffffffffffffffffffffffffffff1673ffffffffffffffffffffffffffffffffffffffff168152602001908152602001600020600083815260200190815260200160002081905550806008600084815260200190815260200160002081905550505050565b6000808273ffffffffffffffffffffffffffffffffffffffff163b119050919050565b8280546131eb90613b42565b90600052602060002090601f01602090048101928261320d5760008555613254565b82601f1061322657805160ff1916838001178555613254565b82800160010185558215613254579182015b82811115613253578251825591602001919060010190613238565b5b5090506132619190613265565b5090565b5b8082111561327e576000816000905550600101613266565b5090565b6000604051905090565b600080fd5b600080fd5b60007fffffffff0000000000000000000000000000000000000000000000000000000082169050919050565b6132cb81613296565b81146132d657600080fd5b50565b6000813590506132e8816132c2565b92915050565b6000602082840312156133045761330361328c565b5b6000613312848285016132d9565b91505092915050565b60008115159050919050565b6133308161331b565b82525050565b600060208201905061334b6000830184613327565b92915050565b600073ffffffffffffffffffffffffffffffffffffffff82169050919050565b600061337c82613351565b9050919050565b61338c81613371565b811461339757600080fd5b50565b6000813590506133a981613383565b92915050565b6000602082840312156133c5576133c461328c565b5b60006133d38482850161339a565b91505092915050565b600081519050919050565b600082825260208201905092915050565b60005b838110156134165780820151818401526020810190506133fb565b83811115613425576000848401525b50505050565b6000601f19601f8301169050919050565b6000613447826133dc565b61345181856133e7565b93506134618185602086016133f8565b61346a8161342b565b840191505092915050565b6000602082019050818103600083015261348f818461343c565b905092915050565b6000819050919050565b6134aa81613497565b81146134b557600080fd5b50565b6000813590506134c7816134a1565b92915050565b6000602082840312156134e3576134e261328c565b5b60006134f1848285016134b8565b91505092915050565b61350381613371565b82525050565b600060208201905061351e60008301846134fa565b92915050565b6000806040838503121561353b5761353a61328c565b5b60006135498582860161339a565b925050602061355a858286016134b8565b9150509250929050565b61356d81613497565b82525050565b60006020820190506135886000830184613564565b92915050565b6000806000606084860312156135a7576135a661328c565b5b60006135b58682870161339a565b93505060206135c68682870161339a565b92505060406135d7868287016134b8565b9150509250925092565b600080fd5b600080fd5b7f4e487b7100000000000000000000000000000000000000000000000000000000600052604160045260246000fd5b6136238261342b565b810181811067ffffffffffffffff82111715613642576136416135eb565b5b80604052505050565b6000613655613282565b9050613661828261361a565b919050565b600067ffffffffffffffff821115613681576136806135eb565b5b61368a8261342b565b9050602081019050919050565b82818337600083830152505050565b60006136b96136b484613666565b61364b565b9050828152602081018484840111156136d5576136d46135e6565b5b6136e0848285613697565b509392505050565b600082601f8301126136fd576136fc6135e1565b5b813561370d8482602086016136a6565b91505092915050565b60006020828403121561372c5761372b61328c565b5b600082013567ffffffffffffffff81111561374a57613749613291565b5b613756848285016136e8565b91505092915050565b6137688161331b565b811461377357600080fd5b50565b6000813590506137858161375f565b92915050565b6000602082840312156137a1576137a061328c565b5b60006137af84828501613776565b91505092915050565b60006137c382613371565b9050919050565b6137d3816137b8565b81146137de57600080fd5b50565b6000813590506137f0816137ca565b92915050565b60006020828403121561380c5761380b61328c565b5b600061381a848285016137e1565b91505092915050565b6000806040838503121561383a5761383961328c565b5b60006138488582860161339a565b925050602061385985828601613776565b9150509250929050565b600081519050919050565b600082825260208201905092915050565b6000819050602082019050919050565b61389881613497565b82525050565b60006138aa838361388f565b60208301905092915050565b6000602082019050919050565b60006138ce82613863565b6138d8818561386e565b93506138e38361387f565b8060005b838110156139145781516138fb888261389e565b9750613906836138b6565b9250506001810190506138e7565b5085935050505092915050565b6000602082019050818103600083015261393b81846138c3565b905092915050565b600067ffffffffffffffff82111561395e5761395d6135eb565b5b6139678261342b565b9050602081019050919050565b600061398761398284613943565b61364b565b9050828152602081018484840111156139a3576139a26135e6565b5b6139ae848285613697565b509392505050565b600082601f8301126139cb576139ca6135e1565b5b81356139db848260208601613974565b91505092915050565b600080600080608085870312156139fe576139fd61328c565b5b6000613a0c8782880161339a565b9450506020613a1d8782880161339a565b9350506040613a2e878288016134b8565b925050606085013567ffffffffffffffff811115613a4f57613a4e613291565b5b613a5b878288016139b6565b91505092959194509250565b60008060408385031215613a7e57613a7d61328c565b5b6000613a8c8582860161339a565b9250506020613a9d8582860161339a565b9150509250929050565b7f4f776e61626c653a2063616c6c6572206973206e6f7420746865206f776e6572600082015250565b6000613add6020836133e7565b9150613ae882613aa7565b602082019050919050565b60006020820190508181036000830152613b0c81613ad0565b9050919050565b7f4e487b7100000000000000000000000000000000000000000000000000000000600052602260045260246000fd5b60006002820490506001821680613b5a57607f821691505b60208210811415613b6e57613b6d613b13565b5b50919050565b7f4552433732313a20617070726f76656420717565727920666f72206e6f6e657860008201527f697374656e7420746f6b656e0000000000000000000000000000000000000000602082015250565b6000613bd0602c836133e7565b9150613bdb82613b74565b604082019050919050565b60006020820190508181036000830152613bff81613bc3565b9050919050565b7f4552433732313a20617070726f76616c20746f2063757272656e74206f776e6560008201527f7200000000000000000000000000000000000000000000000000000000000000602082015250565b6000613c626021836133e7565b9150613c6d82613c06565b604082019050919050565b60006020820190508181036000830152613c9181613c55565b9050919050565b7f4552433732313a20617070726f76652063616c6c6572206973206e6f74206f7760008201527f6e6572206e6f7220617070726f76656420666f7220616c6c0000000000000000602082015250565b6000613cf46038836133e7565b9150613cff82613c98565b604082019050919050565b60006020820190508181036000830152613d2381613ce7565b9050919050565b7f4552433732313a207472616e736665722063616c6c6572206973206e6f74206f60008201527f776e6572206e6f7220617070726f766564000000000000000000000000000000602082015250565b6000613d866031836133e7565b9150613d9182613d2a565b604082019050919050565b60006020820190508181036000830152613db581613d79565b9050919050565b7f455243373231456e756d657261626c653a206f776e657220696e646578206f7560008201527f74206f6620626f756e6473000000000000000000000000000000000000000000602082015250565b6000613e18602b836133e7565b9150613e2382613dbc565b604082019050919050565b60006020820190508181036000830152613e4781613e0b565b9050919050565b600081905092915050565b50565b6000613e69600083613e4e565b9150613e7482613e59565b600082019050919050565b6000613e8a82613e5c565b9150819050919050565b7f455243373231456e756d657261626c653a20676c6f62616c20696e646578206f60008201527f7574206f6620626f756e64730000000000000000000000000000000000000000602082015250565b6000613ef0602c836133e7565b9150613efb82613e94565b604082019050919050565b60006020820190508181036000830152613f1f81613ee3565b9050919050565b7f4e487b7100000000000000000000000000000000000000000000000000000000600052603260045260246000fd5b7f4552433732313a206f776e657220717565727920666f72206e6f6e657869737460008201527f656e7420746f6b656e0000000000000000000000000000000000000000000000602082015250565b6000613fb16029836133e7565b9150613fbc82613f55565b604082019050919050565b60006020820190508181036000830152613fe081613fa4565b9050919050565b7f4552433732313a2062616c616e636520717565727920666f7220746865207a6560008201527f726f206164647265737300000000000000000000000000000000000000000000602082015250565b6000614043602a836133e7565b915061404e82613fe7565b604082019050919050565b6000602082019050818103600083015261407281614036565b9050919050565b600081519050614088816134a1565b92915050565b6000602082840312156140a4576140a361328c565b5b60006140b284828501614079565b91505092915050565b60006040820190506140d060008301856134fa565b6140dd6020830184613564565b9392505050565b6000815190506140f38161375f565b92915050565b60006020828403121561410f5761410e61328c565b5b600061411d848285016140e4565b91505092915050565b7f5055424c49435f53414c455f4e4f545f41435449564500000000000000000000600082015250565b600061415c6016836133e7565b915061416782614126565b602082019050919050565b6000602082019050818103600083015261418b8161414f565b9050919050565b7f434f4e54524143545f43414c4c00000000000000000000000000000000000000600082015250565b60006141c8600d836133e7565b91506141d382614192565b602082019050919050565b600060208201905081810360008301526141f7816141bb565b9050919050565b7f4e487b7100000000000000000000000000000000000000000000000000000000600052601160045260246000fd5b600061423882613497565b915061424383613497565b9250827fffffffffffffffffffffffffffffffffffffffffffffffffffffffffffffffff03821115614278576142776141fe565b5b828201905092915050565b7f455843454544535f4c494d495400000000000000000000000000000000000000600082015250565b60006142b9600d836133e7565b91506142c482614283565b602082019050919050565b600060208201905081810360008301526142e8816142ac565b9050919050565b60006142fa82613497565b915061430583613497565b9250817fffffffffffffffffffffffffffffffffffffffffffffffffffffffffffffffff048311821515161561433e5761433d6141fe565b5b828202905092915050565b7f494e434f52524543545f56414c55450000000000000000000000000000000000600082015250565b600061437f600f836133e7565b915061438a82614349565b602082019050919050565b600060208201905081810360008301526143ae81614372565b9050919050565b60006143c082613497565b91507fffffffffffffffffffffffffffffffffffffffffffffffffffffffffffffffff8214156143f3576143f26141fe565b5b600182019050919050565b7f4552433732314d657461646174613a2055524920717565727920666f72206e6f60008201527f6e6578697374656e7420746f6b656e0000000000000000000000000000000000602082015250565b600061445a602f836133e7565b9150614465826143fe565b604082019050919050565b600060208201905081810360008301526144898161444d565b9050919050565b600081905092915050565b60008190508160005260206000209050919050565b600081546144bd81613b42565b6144c78186614490565b945060018216600081146144e257600181146144f357614526565b60ff19831686528186019350614526565b6144fc8561449b565b60005b8381101561451e578154818901526001820191506020810190506144ff565b838801955050505b50505092915050565b600061453a826133dc565b6145448185614490565b93506145548185602086016133f8565b80840191505092915050565b7f2e6a736f6e000000000000000000000000000000000000000000000000000000600082015250565b6000614596600583614490565b91506145a182614560565b600582019050919050565b60006145b882856144b0565b91506145c4828461452f565b91506145cf82614589565b91508190509392505050565b7f4f776e61626c653a206e6577206f776e657220697320746865207a65726f206160008201527f6464726573730000000000000000000000000000000000000000000000000000602082015250565b60006146376026836133e7565b9150614642826145db565b604082019050919050565b600060208201905081810360008301526146668161462a565b9050919050565b600061467882613497565b915061468383613497565b925082821015614696576146956141fe565b5b828203905092915050565b7f4d41585f535550504c595f524541434845440000000000000000000000000000600082015250565b60006146d76012836133e7565b91506146e2826146a1565b602082019050919050565b60006020820190508181036000830152614706816146ca565b9050919050565b7f4d5553545f42455f475245415445525f30000000000000000000000000000000600082015250565b60006147436011836133e7565b915061474e8261470d565b602082019050919050565b6000602082019050818103600083015261477281614736565b9050919050565b7f4552433732313a206f70657261746f7220717565727920666f72206e6f6e657860008201527f697374656e7420746f6b656e0000000000000000000000000000000000000000602082015250565b60006147d5602c836133e7565b91506147e082614779565b604082019050919050565b60006020820190508181036000830152614804816147c8565b9050919050565b7f4552433732313a207472616e73666572206f6620746f6b656e2074686174206960008201527f73206e6f74206f776e0000000000000000000000000000000000000000000000602082015250565b60006148676029836133e7565b91506148728261480b565b604082019050919050565b600060208201905081810360008301526148968161485a565b9050919050565b7f4552433732313a207472616e7366657220746f20746865207a65726f2061646460008201527f7265737300000000000000000000000000000000000000000000000000000000602082015250565b60006148f96024836133e7565b91506149048261489d565b604082019050919050565b60006020820190508181036000830152614928816148ec565b9050919050565b7f4552433732313a20617070726f766520746f2063616c6c657200000000000000600082015250565b60006149656019836133e7565b91506149708261492f565b602082019050919050565b6000602082019050818103600083015261499481614958565b9050919050565b7f4552433732313a207472616e7366657220746f206e6f6e20455243373231526560008201527f63656976657220696d706c656d656e7465720000000000000000000000000000602082015250565b60006149f76032836133e7565b9150614a028261499b565b604082019050919050565b60006020820190508181036000830152614a26816149ea565b9050919050565b7f4e487b7100000000000000000000000000000000000000000000000000000000600052601260045260246000fd5b6000614a6782613497565b9150614a7283613497565b925082614a8257614a81614a2d565b5b828204905092915050565b6000614a9882613497565b9150614aa383613497565b925082614ab357614ab2614a2d565b5b828206905092915050565b7f4552433732313a206d696e7420746f20746865207a65726f2061646472657373600082015250565b6000614af46020836133e7565b9150614aff82614abe565b602082019050919050565b60006020820190508181036000830152614b2381614ae7565b9050919050565b7f4552433732313a20746f6b656e20616c7265616479206d696e74656400000000600082015250565b6000614b60601c836133e7565b9150614b6b82614b2a565b602082019050919050565b60006020820190508181036000830152614b8f81614b53565b9050919050565b600081519050919050565b600082825260208201905092915050565b6000614bbd82614b96565b614bc78185614ba1565b9350614bd78185602086016133f8565b614be08161342b565b840191505092915050565b6000608082019050614c0060008301876134fa565b614c0d60208301866134fa565b614c1a6040830185613564565b8181036060830152614c2c8184614bb2565b905095945050505050565b600081519050614c46816132c2565b92915050565b600060208284031215614c6257614c6161328c565b5b6000614c7084828501614c37565b91505092915050565b7f4e487b7100000000000000000000000000000000000000000000000000000000600052603160045260246000fdfea264697066735822122050614d94151c83a294d19fdec92f26e7f6498c582063d80aaf06040ba251180164736f6c634300080b0033697066733a2f2f516d524c6e757264774c68326f3167735671636a746f48746f4a703336674a413477336f58516e385279344570442f537472656574736f662e6a736f6e",
  "linkReferences": {},
  "deployedLinkReferences": {}
}